:020000040800F2
:10000000183D0120AD010008FF520008EB4900082F
:10001000FD520008810A0008A967000800000000DE
:100020000000000000000000000000005D5E00080D
:10003000690C000800000000A95500085F5E000878
:10004000C7010008C7010008C7010008C701000870
:10005000C7010008C7010008C7010008C701000860
:10006000C7010008C7010008C7010008C701000850
:10007000C7010008C7010008C7010008C701000840
:10008000C7010008C7010008C70100080000000000
:10009000000000000000000000000000C701000890
:1000A000C7010008455F0008C7010008C701000834
:1000B000C7010008615F0008C7010008C701000808
:1000C000C7010008C7010008C7010008C7010008F0
:1000D000C7010008C7010008C701000800000000B0
:1000E0006B0C0008C7010008C701000800000000F1
:1000F000000000000000000000000000C701000830
:1001000000000000C70100086D5F0008C70100087B
:1001100000000000000000000000000000000000DF
:10012000B90B0008C7010008C7010008C701000893
:10013000C7010008000000000000000000000000EF
:10014000000000000000000000000000C7010008DF
:10015000C7010008C7010008C70100089D67000823
:10016000C7010008C70100080000000000000000EF
:10017000000000000000000000000000000000007F
:1001800000000000C701000800000000000000009F
:10019000C7010008C7010008DFF80CD000F0AEFA74
:1001A00000480047AD6B0008183D01200648804715
:1001B00006480047FEE7FEE7FEE7FEE7FEE7FEE74C
:1001C000FEE7FEE7FEE7FEE7F15E000899010008A2
:1001D0002DE9F05F0546002092469B46884606467C
:1001E000814640241BE0284641464746224600F00F
:1001F00005FA53465A46C01A914110D31146184683
:10020000224600F0ECF92D1A67EB01084F46224612
:100210000120002100F0E3F917EB00094E41201EF8
:10022000A4F10104DFDC484631462A464346BDE8D6
:10023000F09FD2B201E000F8012B491EFBD27047BB
:100240000022F6E710B513460A4604461946FFF7A2
:10025000F0FF204610BD2DE9FE4F804681EA0300E5
:10026000C00F0C46009021F0004123F00045B8EB90
:100270000200A94105D24046214690461C460B4645
:10028000024623F00040104347D0270DC7F30A0071
:10029000C3F30A510290401A019040286BDAC3F36D
:1002A000130040F4801B0098924620B10023D2EB4B
:1002B000030A63EB0B0B01985946C0F1400250460C
:1002C00000F08DF906460D4650465946019A00F059
:1002D000A5F910EB08006141002487EA115284EA75
:1002E000E7731A4340D0009A62B3019A012A4FEA99
:1002F000075215DC001B61EB02014FF0004202EADD
:100300000752CDE90042001C41F5801132462B46D0
:1003100000F0A5F903B0BDE8F08F40462146F9E7AB
:10032000001B61EB0201001C41F5801300185B41CA
:100330002018A2F5001747EB030140EAD570B61963
:100340006D4111E06D084FEA360645EAC0754FEA87
:100350000752001B61EB0201001C41F580114908A6
:100360004FEA30000019514132462B4603B0BDE838
:10037000F04F00F065B90098012240000023D0EB57
:10038000020263EBE073009821464FEAE074B8EB99
:10039000000061EB0401E9E783F000435BE781F0D3
:1003A000004158E72DE9FE4F81EA030404F00044C0
:1003B00021F0004100944FF0000B23F0004350EA7D
:1003C00001045ED052EA03045BD0C3F30A54C1F3C4
:1003D0000A552C44A4F2F3340194A0FB0254C1F357
:1003E000130141F48011C3F3130343F4801301FBA1
:1003F000024400FB034E840A970A44EA815447EA08
:100400008357A4FB076802958D0A05FB07854FEA11
:10041000932C04FB0C542705029D4FEA065847EA2B
:100420001637B5EB08056EEB070C870E920E47EA00
:10043000811742EA8312A7FB0201B6EB0B0164EBC2
:1004400000042B0D43EA0C335E1844EB1C50DA46D3
:100450005146E7FB0201C5F313044FEA0B3343EAAD
:1004600014534FEA0432019C43EA0603A4F10C043E
:100470000294009CCDE900B400F0F1F803B0BDE8AF
:10048000F08F00200146F9E72DE9F04D81EA0304E1
:1004900004F0004B21F0004514464FF0000A23F011
:1004A000004150EA050220D054EA01021DD0C5F3F4
:1004B0000A570246C5F31303C1F31300C1F30A56EA
:1004C00040F4801543F48013A7EB0608101BD646B2
:1004D00008F2FD3873EB050002D308F1010801E0D2
:1004E00092185B41B8F1000F03DA00200146BDE825
:1004F000F08D00204FF48011064684460EE0171B55
:1005000073EB050705D3121B63EB050306434CEAA7
:10051000010C49084FEA300092185B4150EA01078C
:10052000EDD152EA030012D082EA040083EA050109
:10053000084305D0101BAB4106D20122002306E080
:1005400000224FF0004302E06FF0010253101AEB5B
:1005500006004CEB085110EB0A0041EB0B01BDE823
:10056000F04D00F06DB80EB540F23341029100211C
:10057000CDE900110A460B4600F071F803B000BD4A
:10058000C1F30A5210B5C1F3130140F2FF3341F435
:1005900080119A4201DA002010BD40F233439A42A2
:1005A000A2F2334203DC524200F028F810BD904022
:1005B00010BD30B50B46014600202022012409E081
:1005C00021FA02F59D4205D303FA02F5491B04FA0C
:1005D00002F52844151EA2F10102F1DC30BD202AEB
:1005E00004DB203A00FA02F1002070479140C2F18A
:1005F000200320FA03F3194390407047202A04DBBC
:10060000203A21FA02F00021704721FA02F3D0408B
:10061000C2F120029140084319467047202A06DBA8
:10062000CB17203A41FA02F043EAE07306E041FAC0
:1006300002F3D040C2F120029140084319467047AE
:1006400010B5141E73F1000408DA401C41F10001DA
:1006500092185B411A4301D120F0010010BD2DE931
:10066000F04D92469B4611B1B1FA81F202E0B0FA28
:1006700080F220329046FFF7B2FF04460F4640EA70
:100680000A0041EA0B0153465A46084313D011466B
:1006900053EA010019D0C8F140025046FFF7AEFFFF
:1006A00005460E46504659464246FFF798FF084316
:1006B00005D0012004E020463946BDE8F08D002039
:1006C000054346EAE0762C4337430A986305E40A7B
:1006D000A0EB08000022FD0A44EA47540A3002D584
:1006E00000200146E9E7010510196941DDE90845E7
:1006F00000196941BDE8F04DA2E70000064C074D26
:1007000006E0E06840F0010394E8070098471034E1
:10071000AC42F6D3FFF744FDB4820008D48200084F
:1007200070B58D1810F8014B14F0030201D110F8C8
:10073000012B231106D110F8013B03E010F8016BE7
:1007400001F8016B521EF9D1ABB110F8012B04F086
:100750000C048A1A0C2C03D0A2EB84129B1C08E018
:1007600010F8014BA2EB0422F8E712F8014B01F854
:10077000014B5B1EF9D5A942D4D3002070BD10B542
:100780000146806B026C12F0500F05D0026CD2064D
:1007900026D500F067FB10BD016C41F400710164C7
:1007A00001688A6812F0405F17D1027EAAB9CA6A4E
:1007B00012F4700F02D08A6852050ED44A6822F0F3
:1007C00020024A60016C21F480710164016CC9044B
:1007D00003D4016C41F00101016400F041FB10BD44
:1007E000806BC26CBDE810400846104710B5806BA6
:1007F00040210164416C41F00401416400F032FB8E
:1008000010BD10B5806B00F02CFB10BD10B5044678
:100810004B48416821F440314160416862681143AE
:1008200041602068416821F480714160206841681E
:10083000226941EA022141602068416821F040714B
:10084000416020684168A268114341602068816866
:1008500021F40061816020688168E2681143816051
:10086000A06A6FF07061C8422068816821F07061F1
:100870008160206881680CD0A26A11438160206881
:10088000816821F04051816020688168E26A1143EB
:1008900001E021F0405181602068816821F002016F
:1008A000816020688168227E41EA4201816094F87B
:1008B000200000283FD0606A401E072804D940F27B
:1008C000757120A006F071F92068416841F400615B
:1008D00041602068416821F46041416020684168BE
:1008E000264B626A03EB4232114341602068C16AC1
:1008F00021F47001C1622068C16AA28B204B03EB16
:1009000002521143C1622068816821F40071816044
:100910002068816894F8302041EA42218160206893
:10092000816821F48061816020688168626941EAA0
:100930008221816010BD2068416821F40061D4E704
:10094000002301402E2E2F447269766572732F5357
:10095000544D3332463478785F48414C5F44726975
:100960007665722F5372632F73746D3332663478E9
:10097000785F68616C5F6164632E630000E0FFFF75
:100980000000F0FF0148406A80680047782E01208F
:1009900038B5074C054800256062016819B1684602
:1009A0008847002801D00120656238BD602E0120F3
:1009B000782E012070B50A4C0546606AC168284649
:1009C000884750B9606A01692846884728B9606A33
:1009D000416928468847002800D0012070BD0000EA
:1009E000782E012070B5114C0546206A41692846D1
:1009F0008847C8B9206A816928468847A0B9206A13
:100A0000C1692846884778B9206A016A284688471C
:100A100050B9206A416A2846884728B9206A816A05
:100A200028468847002800D0012070BD782E01207C
:100A30000148006AC0680047782E01200148006A1A
:100A400080680047782E012002490078096A096908
:100A500008470000782E012038B5084C06480025CC
:100A600020628DF80050016819B168468847002857
:100A700001D00120256238BD342E0120782E0120BE
:100A8000FEE7000070B54178144A81EA510181EA1D
:100A9000910181EA11146FEA1113E4438D0804F007
:100AA0000104D471C94303F0010301F0010613727C
:100AB000E9436401567201F0010144EA03139172A3
:100AC00043EAC60343EA8101D172007800F03C009A
:100AD000884201D0012070BD002070BD782E012019
:100AE0007047FFF7CFBF00F001B8000038B50A4CDF
:100AF00000228021204600F0F9FFA015074A00904F
:100B00000123911E064801F035FF01228021204675
:100B100000F0ECFF014838BD00080240962E01208D
:100B20008038012000F028B800F02BB80B4800B541
:100B3000026887B0002142F002020260006800F003
:100B400002000590402000900120CDE901010391B1
:100B50006946034800F066FE07B000BD3038024029
:100B60000004024010B500F01FF808B1012010BDCC
:100B7000FFF7DCFF002010BD007840F38010401C20
:100B80007047007840F3C010401C704710B5FFF765
:100B9000F9FE044C2061E061FFF70CFF2069401C66
:100BA00010BD0000B02D012010B505F077F8002829
:100BB00000D0012010BD0000014800F06FBB000014
:100BC0003C32012001681823CAB2103AB2FBF3F29A
:100BD000054B6FF30901032A9B5CC36500D9091D0E
:100BE00081650846704700009482000810B50146F0
:100BF00000208B698A6A4FF0C07453B1B3F5005F6F
:100C000015D072B1012A0CD0022A0AD0032A09D1C8
:100C100004E01AB1012A06D0022A03D1C96AC90127
:100C200000D5012010BDC96AA142FAD010BD002A2A
:100C3000F7D0012AF2D0022AF3D0032AF3D010BD54
:100C400030B50468256825F4802525600468636054
:100C50008368402B036803D099600068C26030BD90
:100C60009A600068C16030BD70474FF4005000F0DA
:100C7000CDBD7047F8B500260546009608680C46BD
:100C8000122804D94FF4CB6162A005F08EFF606892
:100C9000401E0F2804D940F259615EA005F085FF7F
:100CA000A06890B1012810D002280ED003280CD0E3
:100CB00004280AD0052808D0062806D0072804D022
:100CC00040F25A6153A005F070FF95F83C000128EE
:100CD00019D0012085F83C00206807212A680928DE
:100CE00013D9D3680A3800EB400081408B43D360AE
:100CF0002078A1680A3800EB400081402868C2686B
:100D00001143C16010E00220F8BD136900EB400000
:100D100081408B4313612178A06801EB4101884039
:100D200029680A691043086160681F21072813D2E7
:100D30002A68536B401E00EB800081408B43536355
:100D400021792088491E80B201EB81018840296801
:100D50004A6B1043486327E02A680D2812D2136BB0
:100D6000C01F00EB800081408B431363208881B259
:100D70002079C01F00EB800081402868026B11437E
:100D8000016311E0D36A0D3800EB800081408B4392
:100D9000D362217920880D3980B201EB810188402E
:100DA0002968CA6A1043C86229492A6827488A42C2
:100DB0000AD12268122A07D1426822F40002426056
:100DC000426842F4800242602A688A421DD1214A68
:100DD0002168914201D0112917D1416821F4800185
:100DE0004160416841F400014160206890420CD1AB
:100DF00019481A490068B0FBF1F000EB8000400090
:100E000000E0401E00900028FBD185F83C600020E7
:100E1000F8BD00002E2E2F447269766572732F5331
:100E2000544D3332463478785F48414C5F447269A0
:100E30007665722F5372632F73746D333266347814
:100E4000785F68616C5F6164632E6300002301401A
:100E50000020014012000010AC2E012040420F0083
:100E600070477047704700002DE9F04704004FF0CD
:100E700000057DD06F492068884204D040F24311BC
:100E80006DA005F092FE606868B1B0F5803F0AD0B1
:100E9000B0F5003F07D0B0F5403F04D04FF4A27149
:100EA00065A005F082FEA0684FF080774FF00078D3
:100EB0004FF0407950B1B84208D0404506D048457F
:100EC00004D040F245115CA005F06FFE206930B1FE
:100ED000012804D04FF4A37157A005F066FE207ED0
:100EE00030B1012804D040F2471153A005F05DFE57
:100EF0005F4EA06A80B3B8422ED040452CD0484502
:100F00002AD0B0F1806F27D0B0F1A06F24D0B0F11B
:100F1000C06F21D0B0F1E06F1ED0B0F1006F1BD0D8
:100F2000B0F1106F18D0B0F1206F15D0B0F1306F64
:100F300012D0B0F1406F0FD0B0F1506F0CD0B0F1C3
:100F4000606F09D0B0F1706F06D0B04204D04FF49A
:100F5000A47139A005F029FEE06838B1B0F5006F42
:100F600004D040F2491134A005F01FFEE06900E012
:100F70003DE0401E0F2804D94FF4A5712EA005F0C6
:100F800014FE94F8300030B1012804D040F24B1127
:100F900029A005F00AFE6069012807D030B10228B7
:100FA00004D04FF4A67124A005F0FFFD94F82000B2
:100FB00030B1012804D040F24D111FA005F0F5FD1D
:100FC000A06AB0420FD0E06A68B1B0F1805F0AD089
:100FD000B0F1005F07D0B0F1405F04D040F2511192
:100FE00015A005F0E2FD206C002618B108E00120F4
:100FF000BDE8F087204600F03DF8666484F83C6068
:10100000206CC00610D4206C20F4885040F0020000
:1010100020642046FFF7FAFB6664206C20F0020093
:1010200040F00100206400E0012584F83C6028467F
:10103000DEE70000002001402E2E2F447269766505
:1010400072732F53544D3332463478785F48414C95
:101050005F4472697665722F5372632F73746D33B8
:1010600032663478785F68616C5F6164632E630018
:101070000100000F70B586B0064614216846FFF7E0
:10108000DFF81D493068884234D11C4800250168CA
:1010900041F480710160006800F480700590174889
:1010A0001438016841F0040101600068694600F0ED
:1010B0000400059003200090CDE90105104800F0E0
:1010C000B1FB114C0F48C4E900050015A560C4E947
:1010D0000350800060618000A0618011E0614002E7
:1010E000C4E90805204600F0A9F908B1FFF7C1FDE1
:1010F000B463A66306B070BD0020014044380240CE
:1011000000080240106402403C320120F8B500257E
:1011100004460095007E16460F4630B1012804D0E3
:101120004FF4A8613FA005F040FDE06A68B1B0F15E
:10113000805F0AD0B0F1005F07D0B0F1405F04D00B
:1011400040F2415137A005F030FD94F83C000128F1
:1011500007D0012084F83C0020688168C90702D0CC
:1011600011E00220F8BD816841F0010181603B4837
:101170003B490068B0FBF1F000EB400000E0401E8E
:1011800000900028FBD120688168C90748D0216CF5
:1011900040F20162914341F480712164406840054E
:1011A00005D5206C20F4005040F480502064206C61
:1011B000C00404D5606C20F00600606400E0656443
:1011C00084F83C50A16B2848264DC863A16B274882
:1011D0000864A16B2648C86421686FF0220008608B
:1011E0002068416841F0806141602068816841F475
:1011F00080718160216833463A464C31A06B00F023
:101200008DFA6868C006206802D01A49884207D162
:10121000816811F0405F03D1816841F080418160B5
:101220000020F8BD2E2E2F447269766572732F53FD
:10123000544D3332463478785F48414C5F4472698C
:101240007665722F5372632F73746D333266347800
:10125000785F68616C5F6164632E6300AC2E01206F
:1012600040420F00002301407F07000803080008E8
:10127000ED0700080020014090F83510022903D046
:101280008021416501207047052180F835100068F4
:10129000016821F001010160002070472DE9F84349
:1012A00004464FF00009CDF8009063484FF4165102
:1012B000A56D0068B0FBF1F72E6894F85C1008206B
:1012C00000FA01F131420FD021680A6852070BD5AC
:1012D0000A6822F004020A6094F85C108840A86052
:1012E000606D40F00100606594F85C104FF00108FB
:1012F00008FA01F0304208D021684969090604D58E
:10130000A860606D40F00200606594F85C100420F5
:101310008840304208D021680968890704D5A86050
:10132000606D40F00400606594F85C101020884007
:10133000304218D021680968090714D5A8602068D0
:101340000168490304D50068000308D5A16C07E0D3
:101350000168C90503D4016821F008010160216C0E
:1013600009B12046884794F85C102020884030421C
:1013700031D021680968C9062DD5A86094F83500D8
:1013800005282068016806D0490347D50068000396
:101390001DD4616C1CE021F01601016020684169D8
:1013A00021F080014161206C08B9A06C20B1206857
:1013B000016821F00801016094F85C103F2088402A
:1013C000A86084F8349084F83580216D1FE0E16BCB
:1013D00009B120468847606D00282BD0606DC0079A
:1013E00014D0052084F835002068016821F001013F
:1013F00001600098401C0090B84203D82068006843
:10140000C007F6D184F8349084F83580E16C002967
:1014100010D001B02046BDE8F04308470168C90577
:10142000D5D4016821F01001016084F8349084F86B
:101430003580CCE7BDE8F883AC2E01202DE9F041E2
:10144000044600F089FB0546002C7CD0A2492068A8
:1014500088423ED0A049183188423AD09E49303166
:10146000884236D09C494831884232D09A4960310E
:1014700088422ED09849783188422AD096499031B6
:10148000884226D09449A831884222D09349884284
:101490001FD09249183188421BD090493031884280
:1014A00017D08E494831884213D08C496031884228
:1014B0000FD08A49783188420BD0884990318842D0
:1014C00007D08649A831884203D0B82184A005F00E
:1014D0006CFB6068C0B1B0F1007F15D0B0F1806FD7
:1014E00012D0B0F1C06F0FD0B0F1006F0CD0B0F1DE
:1014F000206F09D0B0F1406F06D0B0F1606F03D01B
:10150000B92177A005F051FBA06838B1402805D07B
:10151000802803D0BA2172A005F047FBE068B0F53F
:10152000007F04D018B1BB216DA005F03EFB2069FF
:10153000B0F5806F04D018B1BC2169A005F035FB6F
:10154000606958B100E071E0B0F5006F06D0B0F509
:10155000805F03D0BD2162A005F027FBA06948B1E0
:10156000B0F5005F06D0B0F5804F03D0BE215CA07F
:1015700005F01BFBE06940B1B0F5807F05D0202865
:1015800003D0BF2156A005F010FB206A60B1B0F572
:10159000803F09D0B0F5003F06D0B0F5403F03D002
:1015A000C0214FA005F001FB606A002832D004285A
:1015B00006D0C1214AA005F0F8FA606A002829D0B7
:1015C000A06A48B1012807D0022805D0032803D01B
:1015D000C62143A005F0E9FAE06A60B1B0F5000F5A
:1015E00009D0B0F1807F06D0B0F1C07F03D0C72111
:1015F0003BA005F0DAFA206B60B1B0F5001F09D00E
:10160000B0F5800F06D0B0F5C00F03D0C82134A0CC
:1016100005F0CBFA002684F83460022084F8350007
:101620002068016821F0010101600EE00120BDE8A1
:10163000F08100BF00F090FA401B052805D920205A
:101640006065032084F83500F1E720680068C00772
:10165000F0D12268116830480140D4E901031843F1
:10166000D4E903352B43184363691843A36918432E
:10167000E3691843236A18430843616A042903D1C4
:10168000D4E90B1319430843106020684069656A68
:1016900020F0070128460D43012704280CD1A06A39
:1016A0000543E06A40B12046FFF7A0FA20B1402090
:1016B000606584F83570B9E7206845612046FFF71A
:1016C00081FA94F85C203F2191408160666584F83E
:1016D00035700020ABE7000010600240106402404B
:1016E0002E2E2F447269766572732F53544D333208
:1016F000463478785F48414C5F4472697665722F52
:101700005372632F73746D3332663478785F686117
:101710006C5F646D612E63003F8010F02DE9F0472F
:1017200089460446876D0025581E4FF6FF711E46F8
:101730009046884204D34FF4E6711CA005F035FAB8
:1017400094F8340001280DD0012084F8340094F876
:1017500035100020012907D084F8340002252846DE
:10176000BDE8F0870220FBE7022184F835106065B0
:101770003346424649462046FFF762FA94F85C1029
:101780003F208840B8602068016841F01601016080
:10179000206C20B12068016841F0080101602068D8
:1017A000016841F001010160D9E700002E2E2F44AD
:1017B0007269766572732F53544D3332463478789C
:1017C0005F48414C5F4472697665722F5372632F94
:1017D00073746D3332663478785F68616C5F646D02
:1017E000612E630070B5044600F0B6F90546601C32
:1017F00002D004480078044400F0AEF9401BA04237
:10180000FAD370BDA02E012070470000044910B526
:101810000A68024202D00860FFF7F6FF10BD000020
:10182000143C01402DE9F84F044692480D4684428D
:1018300012D0914884420FD0904884420CD09048F6
:10184000844209D08F48844206D08F48844203D016
:10185000B3218EA005F0A9F928680104090C01D074
:10186000000C03D0B42189A005F09FF96868F8B195
:1018700001281DD011281BD0022819D0122817D0FA
:101880009149884214D09149884211D090498842A8
:101890000ED0904988420BD08F49884208D08F499A
:1018A000884205D0032803D0B52178A005F07DF942
:1018B000A86838B1012805D0022803D0B62173A04A
:1018C00005F073F900264FF0010A4FF0030B00BF3B
:1018D0000AFA06F02F688046074047457ED16868BF
:1018E000012805D0022803D0112801D012281DD1CB
:1018F000E86848B1012807D0022805D0032803D0A2
:10190000C82162A005F051F9A06872000BFA02F13B
:101910008843E96891400143A1606068297920EA21
:101920000800C1F30011B14001436160E06871003B
:10193000AA6888460BFA01F920EA090002FA08F2BF
:101940000243E2606868022801D0122828D1286981
:10195000C8B1092817D0012815D0022813D00428AF
:1019600011D005280FD006280DD007280BD0082845
:1019700009D00A2807D00C2805D00F2803D0E02171
:1019800042A005F012F9F00804EB8002106A71071A
:10199000CB0E0F2199408843296999400143116278
:1019A0002068297920EA090001F0030101FA08F111
:1019B000014321606868C00056D54948016841F478
:1019C00080410160006826F0030100F4804000902F
:1019D00044480A18D2F80818B00700E044E0030FA2
:1019E0000F20984081432348844201D1002014E015
:1019F0002148844201D101200FE02048844201D1D6
:101A000002200AE01E48844201D1032005E01D485F
:101A1000844201D1042000E0072098400843C2F826
:101A20000808314908686A68B843D20300D53843CA
:101A300008602D49091D08686A68B843920300D5FB
:101A4000384308602849083108686A68B843D202F8
:101A500000D53843086024490C3108686A68B843E7
:101A6000920200D538430860761C102EFFF430AF88
:101A7000BDE8F88F00000240000402400008024068
:101A8000000C024000100240001C02402E2E2F4489
:101A90007269766572732F53544D333246347878B9
:101AA0005F48414C5F4472697665722F5372632FB1
:101AB00073746D3332663478785F68616C5F677019
:101AC000696F2E630000000000001110000021105B
:101AD000000031100000121000002210000032102F
:101AE0004438024000300140003C014070B51546CA
:101AF0000C00064604D140F29F1108A005F055F8ED
:101B000045B1012D04D04FF4D07104A005F04DF87B
:101B1000B46170BD2004B06170BD00002E2E2F4452
:101B20007269766572732F53544D33324634787828
:101B30005F48414C5F4472697665722F5372632F20
:101B400073746D3332663478785F68616C5F677088
:101B5000696F2E6300000000014880687047000034
:101B6000A02E0120024881680278114481607047EC
:101B7000A02E01200B4810B5016841F400710160EE
:101B8000016841F480610160016841F48071016085
:101B9000032000F0C5F8002000F006F800F024F85B
:101BA000002010BD003C024070B50D4D04464FF4BE
:101BB0007A712878B1FBF0F00A490968B1FBF0F0BE
:101BC00001F006F848B9102C07D200222146501E19
:101BD00000F056F800206C6070BD012070BD000060
:101BE000A02E0120AC2E01200B4882B0016841F4E8
:101BF00080410160006800F4804000900648001FAA
:101C0000016841F080510160006800F08050009050
:101C1000072002B000F084B84438024010B5040038
:101C200003D5BE2107A004F0C0FF002C09DB04F09F
:101C30001F01012088406109890001F1E021C1F8FC
:101C4000000110BD2E2E2F447269766572732F53DA
:101C5000544D3332463478785F48414C5F44726962
:101C60007665722F5372632F73746D3332663478D6
:101C7000785F68616C5F636F727465782E630000D3
:101C800070B515460C460646102A03D3AA2114A0A7
:101C900004F08BFF102C03D3AB2111A004F085FFBF
:101CA0001E480068C0F30223C3F107022046042A3D
:101CB00000D90422191D072901D2002300E0DB1EF0
:101CC000012404FA02F1491E014099409C40641E1F
:101CD0002C4021433046BDE8704004F065BE000052
:101CE0002E2E2F447269766572732F53544D333202
:101CF000463478785F48414C5F4472697665722F4C
:101D00005372632F73746D3332663478785F686111
:101D10006C5F636F727465782E6300000CED00E0F9
:101D200010B5044607280BD0062C09D0052C07D087
:101D3000042C05D0032C03D0922108A004F035FF19
:101D4000154904F0070208684FF6FF03184040EAFF
:101D50000220124A1043086010BD00002E2E2F44AE
:101D60007269766572732F53544D333246347878E6
:101D70005F48414C5F4472697665722F5372632FDE
:101D800073746D3332663478785F68616C5F636F4B
:101D9000727465782E6300000CED00E00000FA0517
:101DA0002DE9F0470E4604007DD02068401E0E2825
:101DB00004D940F251217AA004F0F7FE96B1012E29
:101DC00010D0022E0ED0032E0CD0042E0AD0052ED9
:101DD00008D0062E06D0072E04D040F2522170A063
:101DE00004F0E3FEDFF8F081D8F80000F7B200F06D
:101DF0000F00B04207D288F80070D8F8000000F059
:101E00000F00B0424FD12068744D810729D540079B
:101E100003D5286840F4E05028602078000703D5F7
:101E2000286840F460402860A068A0B1802812D0E3
:101E3000902810D0A0280ED0B0280CD0C0280AD0EE
:101E4000D02808D0E02806D0F02804D040F2752130
:101E500053A004F0AAFE2868A16820F0F00008430F
:101E600028602078C00743D0DFF870916068A9F13E
:101E7000080988B1012822D0022824D0032822D0C2
:101E80004FF41F7146A004F090FE6068012816D040
:101E9000022818D0032816D0D9F80000800700289F
:101EA00033DA286800E030E0616820F0030008437E
:101EB0002860FFF751FE814641F2883A11E0D9F8D7
:101EC00000008003EBE7D9F800008001E7E700BFDE
:101ED000FFF742FEA0EB0901514502D90320BDE8FE
:101EE000F0872868616800F00C00B0EB810FEFD13B
:101EF000D8F80010404601F00F01B14207D9077031
:101F0000006800F00F00B04201D00120E7E7207820
:101F10004FF4805640074FF4A0574FF4C0584FF489
:101F2000E05914D5E06860B1B0420AD0B84208D098
:101F3000404506D0484504D040F2BA2118A004F02C
:101F400034FE2868E16820F4E050084328602078D7
:101F5000000715D5206960B1B0420AD0B84208D058
:101F6000404506D0484504D040F2C1210CA004F001
:101F70001CFE2868216920F4604040EAC100286006
:101F800000F054F82968164AC1F30311515CC840A7
:101F90001449086014480068FFF706FE00209EE719
:101FA0002E2E2F447269766572732F53544D33323F
:101FB000463478785F48414C5F4472697665722F89
:101FC0005372632F73746D3332663478785F68614F
:101FD0006C5F7263632E6300003C0240083802406D
:101FE0009C820008AC2E0120A42E01200448054943
:101FF00000680968044AC1F38221515CC8407047F7
:10200000AC2E012008380240AC8200080448054983
:1020100000680968044AC1F34231515CC840704706
:10202000AC2E012008380240AC820008154810B5DB
:10203000006810F00C02144813D04110042A0FD08D
:10204000082A0ED10F4C241F2268236802F03F0299
:102050005B0207D52068C0F38810A0FB010106E0F1
:10206000084610BD2168C1F38811A1FB00010023BF
:10207000FEF7AEF82168C1F30141491C4900B0FBED
:10208000F1F010BD083802400024F4002DE9F84FAB
:1020900004007DD020680F2803D9E821F6A004F0C1
:1020A00084FD2078DFF80894C007A9F1040555D015
:1020B00060684FF480364FF4A02738B1B04205D0A5
:1020C000B84203D0ED21ECA004F06FFDF848001DEC
:1020D0000168C1F38101012908D00068C0F38100C3
:1020E00002280AD1D9F80000400206D528688003EA
:1020F00034D560680028CCD030E06068B04203D1AD
:10210000286840F480300CE0B842286803D140F4DD
:1021100080202860F4E720F480302860286820F4CC
:1021200080202860606860B1FFF716FD064604E075
:10213000FFF712FD801B64287ED828688003F7D53E
:102140000CE0FFF709FD064605E000BFFFF704FDC0
:10215000801B6428F0D828688003F7D42078DFF843
:10216000548380074FF0000A56D5E06830B101284B
:1021700004D040F21F11C0A004F017FD20691F28F1
:1021800004D94FF49071BCA004F00FFDC84800E0E2
:1021900092E0001D016811F00C0F08D00068C0F338
:1021A0008100022810D1D9F8000040020CD4286820
:1021B000800702D5E06801287ED12868216920F0D7
:1021C000F80040EAC10017E0E068B8B10120C8F8A3
:1021D0000000FFF7C1FC064605E000BFFFF7BCFCAE
:1021E000801B0228A8D828688007F7D5286820F027
:1021F000F801206941EAC00028600DE0C8F800A09D
:10220000FFF7AAFC064604E0FFF7A6FC801B0228A5
:1022100092D828688007F7D4207800072ED5A44EDE
:10222000A54F60697036D0B1012808D04FF4B07165
:1022300091A004F0BAFC00E049E1606978B10120A6
:102240003860FFF789FC074605E000BFFFF784FC14
:10225000C01B0228C6D830688007F7D50EE0C7F843
:1022600000A0FFF779FC074605E000BFFFF774FC0C
:10227000C01B0228B6D830688007F7D42078400702
:1022800076D5A068002740B1012806D0052804D0E3
:102290004FF4C67178A004F088FCDFF814B20BF19B
:1022A0003C0BDBF80000C0000DD4DBF8001041F05F
:1022B0008051CBF8001000E02EE1DBF80000012790
:1022C00000F0805000907D4E3068C00511D4306819
:1022D00040F480703060FFF73FFC009006E000BFE4
:1022E000FFF73AFC0099401A022891D83068C005DF
:1022F000F6D56F4EA0686C3601280FD005283068DF
:1023000010D020F001003060306820F00400306010
:10231000A068B8B1FFF720FC00900FE0306840F0F3
:102320000100F4E740F004003060F7E7FFF714FC29
:102330000099411A41F2883081428BD83068800779
:10234000F4D50EE0FFF708FC009007E0FFF704FC6F
:102350000099411A41F2883081428BD83068800759
:10236000F4D42FB1DBF8001021F08051CBF800102D
:10237000A069002874D0012809D0022807D040F2B3
:10238000CF113DA004F011FCA0690028F2D048480C
:10239000001D0068C0F381000228A0696BD00228EC
:1023A00005D0C8F860A0FFF7D7FB044692E0E069CB
:1023B00038B1B0F5800F04D04FF4EC712EA004F0CA
:1023C000F4FB206A3F2804D940F2D9112AA004F076
:1023D000ECFB606AC038F02804D94FF4ED7126A0F8
:1023E00004F0E3FBA06A02280AD0042808D00628DB
:1023F00006D0082804D040F2DB111FA004F0D5FB62
:10240000E06A801E0D2804D94FF4EE711AA004F082
:10241000CCFB4746C8F860A0FFF79EFB064604E0E9
:10242000FFF79AFB801B022851D828688001F7D457
:10243000D4E907010843A16A214A490802EB014196
:10244000626A41EA8211084394F82C1040EA016163
:10245000C9F8001001203866FFF77EFB044606E04D
:102460005CE000BFFFF778FB001B02282FD828682C
:102470008001F7D552E031E02E2E2F447269766547
:1024800072732F53544D3332463478785F48414C41
:102490005F4472697665722F5372632F73746D3364
:1024A00032663478785F68616C5F7263632E6300B4
:1024B0000438024000004742800E4742007000404E
:1024C0000000FFFFFFF748FB001B022802D9032092
:1024D000BDE8F88F28688001F4D41FE00128F7D008
:1024E000D9F80000E26900F48001914214D1226A17
:1024F00000F03F0191420FD147F6C071626A01407E
:10250000914209D1A26A00F44031914204D1E16ABA
:1025100000F07060884201D00120D9E70020D7E7A1
:1025200090F851007047000070B504006CD05D4910
:102530002068884210D05C4988420DD05B498842AF
:102540000AD05B49884207D05A49884204D04FF4E8
:10255000A17159A004F029FB606838B1B0F5827F01
:1025600004D040F2431154A004F01FFBA06850B106
:10257000B0F5806F07D0B0F5004F04D04FF4A271D2
:102580004DA004F012FBE068B0F5006F05D020B15B
:1025900040F2451148A004F008FBA069B0F5007FA7
:1025A00008D038B1B0F5802F04D04FF4A37142A009
:1025B00004F0FBFAE06990B1082810D010280ED082
:1025C00018280CD020280AD0282808D0302806D077
:1025D000382804D040F2471137A004F0E6FA206A08
:1025E00030B1802804D04FF4A47133A004F0DDFA98
:1025F000606A58B110281BD040F249112EA004F097
:10260000D4FA606A10B113E0012070BD206930B1C6
:10261000022804D04FF4A67127A004F0C6FA60691E
:1026200030B1012804D040F24D1123A004F0BDFACE
:102630000025A56294F8510020B984F85050204636
:1026400000F056F8022084F851002068016821F05B
:1026500040010160D4E901010843D4E903121143A8
:10266000084361690843218B01F400710843E16963
:102670000843216A0843A16A084321680860A069E9
:10268000042101EA1040616A08432168486020681B
:10269000C16921F40061C1616565012084F85100C0
:1026A000002070BD0030014000380040003C004078
:1026B00000340140005001402E2E2F44726976658F
:1026C00072732F53544D3332463478785F48414CFF
:1026D0005F4472697665722F5372632F73746D3322
:1026E00032663478785F68616C5F7370692E63005E
:1026F0002DE9F04186B0044614216846FDF7A0FD9F
:102700002D482C4B226800242B491438022503261F
:10271000DFF8A8809A4219D10A6842F480520A6010
:10272000096801F480510591016841F001010160DF
:102730000068029400F001000590E020CDE900055A
:102740000520CDE90360694640462EE01C4B9A42C5
:102750002DD10A6842F480120A60096801F48011E0
:102760000591016841F002010160016801F0020178
:102770000591016841F001010160006802AA00F0C2
:10278000010005900120CDE90005062782E8D00070
:1027900069460C48FFF746F84FF48060CDE9000524
:1027A00002AA694682E8D0004046FFF73BF806B02F
:1027B000BDE8F08100300140443802400000024092
:1027C00000500140000402402DE9F84F04468068A3
:1027D0001D4616468946002738B1B0F5004F04D093
:1027E00040F2F22155A004F0E0F994F850000128DD
:1027F0000ED04FF0010B84F850B0FFF7ADF98046D2
:1028000094F851004FF0000A012804D002278EE00E
:102810000220BDE8F88FB9F1000F6ED0002E6CD009
:10282000032084F85100C4F854A0C4F83090A68660
:10283000E686C4F838A0A4F83CA0A4F83EA0C4F8EA
:1028400044A0C4F840A0A068B0F5004F04D12068AF
:10285000016841F48041016020680168490603D4A1
:10286000016841F040010160E068B0F5006F606808
:1028700003D030B3012E24D041E008B1012E1CD189
:10288000206B21680088C86006E02068816889079D
:1028900009D5216B0988C160206B801C2063E08E04
:1028A000401EE08609E0FFF757F9A0EB0800A842B8
:1028B00002D3681C01D031E07DB3E08E0028E4D162
:1028C00020E0206B21680078087306E020688168AA
:1028D000890709D5216B09780173206B401C20639F
:1028E000E08E401EE0860AE0FFF736F9A0EB080014
:1028F000A84203D3681C02D010E017E06DB1E08E4F
:102900000028E3D142462946204603F031FA08B1B7
:1029100020206065A06818B106E0FFE7032706E005
:102920002068C16880680090606D00B1012784F85C
:1029300051B084F850A038466BE700002E2E2F448B
:102940007269766572732F53544D333246347878FA
:102950005F48414C5F4472697665722F5372632FF2
:1029600073746D3332663478785F68616C5F73704E
:10297000692E63002DE9F84F04460A9E80681D46C3
:1029800092468B464FF00109002720B140F25A4190
:1029900074A004F00AF994F8500001280ED0012028
:1029A00084F85000FFF7D8F8804694F85100616829
:1029B00001280CD0B1F5827F07D102E00220BDE8EA
:1029C000F88FA16809B9042801D00227C2E0BBF141
:1029D000000F27D0BAF1000F24D01DB394F8510096
:1029E000042802D0052084F8510000206065C4F856
:1029F00038A0E587A587C4F830B0E586A5862064B1
:102A0000606420680168490603D4016841F0400110
:102A10000160E068B0F5006F606805D0F0B3012D8B
:102A200046D07FE0012795E008B1012D39D1206B18
:102A300021680088C860206B801C2063E08E401EE7
:102A4000E0862EE02068816889070FD5E18E69B1A4
:102A5000B9F1010F0AD1216B0988C160206B801C7C
:102A60002063E08E401EE0864FF0000920688168F8
:102A7000C9070CD0E18F51B1C068A16B0880A06B71
:102A8000801CA063E08F401EE0874FF00109FFF734
:102A900063F8A0EB0800B04203D300E008E0701C2C
:102AA00050D1E08E0028CDD1E08F0028CAD13FE080
:102AB000206B216800780873206B401C2063E08E37
:102AC000401EE0862EE02068816889070FD5E18EE0
:102AD00069B1B9F1010F0AD1216B09780173206B3B
:102AE000401C2063E08E401EE0864FF00009206805
:102AF0008168C9070CD0E18F51B1C068A16B087023
:102B0000A06B401CA063E08F401EE0874FF00109DE
:102B1000FFF722F8A0EB0800B04202D3701C01D0EE
:102B200010E07EB1E08E0028CDD1E08F0028CAD120
:102B300042463146204603F01BF928B101272020E8
:102B4000606507E0032705E0A06818B92068C16840
:102B500080680090012084F85100002084F8500023
:102B600038462CE72E2E2F447269766572732F53E8
:102B7000544D3332463478785F48414C5F44726933
:102B80007665722F5372632F73746D3332663478A7
:102B9000785F68616C5F7370692E63000B48818891
:102BA000642902D8491C818009E04178491CC9B2D6
:102BB00041700A2903D10021417001210170C168CF
:102BC000002901D0491EC16070470000B02D0120CE
:102BD00010B5401EB0F1807F01D3012010BD4FF031
:102BE000E02460610F21601703F0DEFE0020A06189
:102BF00007202061002010BD704770472DE9F04785
:102C000004460068324E334FDFF8CC80DFF8CC90BA
:102C10000D464FF0804AB0420CD050450AD0B84221
:102C200008D0404506D0484504D040F264612CA04D
:102C300003F0BBFF286890B1102810D020280ED0D8
:102C400030280CD040280AD0502808D0602806D060
:102C5000702804D040F2656121A003F0A6FF6868E7
:102C6000802805D020B140F266611DA003F09DFFD1
:102C700094F83C00012828D0012284F83C2002204E
:102C800084F83D00216848688B6820F0700C286843
:102C900040EA0C0048602068B0420AD0504508D095
:102CA000B84206D0404504D0484502D01B4988426E
:102CB00004D1696823F080031943816084F83D20C2
:102CC000002084F83C00BDE8F0870220FBE700000C
:102CD000000001400004004000080040000C0040DB
:102CE0002E2E2F447269766572732F53544D3332F2
:102CF000463478785F48414C5F4472697665722F3C
:102D00005372632F73746D3332663478785F686101
:102D10006C5F74696D5F65782E6300000040014050
:102D200010B5040046D02D492068884219D0B0F172
:102D3000804F16D02A49884213D02A49884210D0A1
:102D4000294988420DD0294988420AD02849884219
:102D500007D02849884204D04FF4897126A003F097
:102D600024FFA06860B110280AD0202808D040288D
:102D700006D0602804D040F213111FA003F015FF05
:102D8000206950B1B0F5807F07D0B0F5007F04D046
:102D90004FF48A7118A003F008FFA06930B18028B1
:102DA00004D040F2151114A003F0FFFE94F83D008A
:102DB00010B107E0012010BD002084F83C0020463F
:102DC00000F036F8022084F83D00211D206803F051
:102DD000D3F8012084F83D00002010BD0000014020
:102DE0000004004000080040000C0040004001408A
:102DF00000440140004801402E2E2F447269766540
:102E000072732F53544D3332463478785F48414CB7
:102E10005F4472697665722F5372632F73746D33DA
:102E200032663478785F68616C5F74696D2E630018
:102E300008B52449026824488A4207D1016841F054
:102E400001010160006800F001002FE01E491F4BE6
:102E5000091F9A420ED1086840F002000860086815
:102E6000002200F00200009011461D20FEF708FF2E
:102E70001D2022E0164B9A420ED1086840F008004F
:102E800008600868002200F0080000901146322017
:102E9000FEF7F6FE322010E00E498A4211D1016899
:102EA00041F400310160006800F40030002200901D
:102EB00011461920FEF7E4FE1920BDE80840FEF790
:102EC000ADBE08BD0000014044380240000400408F
:102ED000000C00400044014010B50446016817484A
:102EE000814219D0B1F1804F16D01548814213D0DC
:102EF0001448814210D0144881420DD013488142B9
:102F00000AD01348814207D01248814204D040F2CF
:102F1000B91111A003F049FE2068C16841F0010118
:102F2000C1602068816801F00701062903D00168AB
:102F300041F001010160002010BD000000000140CF
:102F40000004004000080040000C00400040014028
:102F500000440140004801402E2E2F4472697665DE
:102F600072732F53544D3332463478785F48414C56
:102F70005F4472697665722F5372632F73746D3379
:102F800032663478785F68616C5F74696D2E6300B7
:102F900010B5044601681948814219D0B1F1804F3B
:102FA00016D01748814213D01648814210D01648D7
:102FB00081420DD0154881420AD01548814207D080
:102FC0001448814204D040F2D11113A003F0EDFD6A
:102FD0002068C16821F00101C1602068016A41F2E6
:102FE0001112114207D1016A9210114203D10168F6
:102FF00021F001010160002010BD0000000001402F
:103000000004004000080040000C00400040014067
:1030100000440140004801402E2E2F44726976651D
:1030200072732F53544D3332463478785F48414C95
:103030005F4472697665722F5372632F73746D33B8
:1030400032663478785F68616C5F74696D2E6300F6
:103050002DE9F05F054690F83C000C4601283FD072
:103060004FF0010B85F83CB0022085F83D00206848
:103070004FF480594FF4005A484515D0504513D0AD
:1030800090B1102810D020280ED030280CD0402825
:103090000AD0502808D0602806D0702804D041F209
:1030A0008B11B9A003F081FD2868816821F07701B8
:1030B00021F47F4181602068C149C24AC24BC34E9E
:1030C000C34F4FF0804C4FF40048502870D00FDCB5
:1030D000202804D007DC0028FBD010284ED13EE188
:1030E0000220BDE8F09F3028F9D04028F6D107E152
:1030F00060287DD070285CD0484540D05045EDD147
:10310000286888420CD060450AD0904208D0984286
:1031100006D0B04204D041F2B6119BA003F045FDA9
:10312000A06858B1484509D0504507D0B0F5405F78
:1031300004D041F2B91194A003F037FD6068404516
:1031400009D040B1022806D00A2804D041F2BA11B1
:103150008DA003F02AFDE0680F2804D941F2BB11CD
:1031600089A003F022FDD4E90121E368286802F078
:10317000B5FF2868816841F480418160BAE0286821
:103180008842FBD06045F9D09042F7D09842F5D004
:10319000B042F3D0B842F1D08E498842EED08E4989
:1031A0008842EBD041F2971177A003F0FEFCA1E03A
:1031B00041E0286888420ED060450CD090420AD089
:1031C000984208D0B04206D0B84204D041F29E11D5
:1031D0006DA003F0EAFCA06868B148450BD05045EB
:1031E00009D0B0F5405F06D041F2A11166A000E021
:1031F00050E003F0DAFC6068404509D040B1022895
:1032000006D00A2804D041F2A2115FA003F0CDFC41
:10321000E0680F2804D941F2A3115BA003F0C5FCBC
:10322000D4E90121E368286802F058FF2868816822
:1032300041F07701A1E7286888420ED060450CD0A4
:1032400090420AD0984208D0B04206D0B84204D08A
:1032500041F2CA114CA003F0A8FC6068404509D0B7
:1032600040B1022806D00A2804D041F2CD1146A070
:1032700003F09BFCE0680F2804D941F2CE1142A074
:1032800003F093FCE2686168286803F0C1F85021FC
:1032900028682DE0286888420ED060450CD0904206
:1032A0000AD0984208D0B04206D0B84204D041F2C9
:1032B000DA1135A003F079FC6068404509D040B1CF
:1032C000022806D00A2804D041F2DD112EA003F016
:1032D0006CFCE0680F2804D941F2DE112AA003F04B
:1032E00064FCE2686168286803F0A3F8602128683C
:1032F00002F0FEFE85F83DB0002085F83C00F0E6C7
:10330000286888420ED060450CD090420AD098427E
:1033100008D0B04206D0B84204D041F2EA111AA057
:1033200003F043FC6068404509D040B1022806D054
:103330000A2804D041F2ED1113A003F036FCE06836
:103340000F2804D941F2EE110FA003F02EFCE26821
:103350006168286803F05CF840212868C8E728689D
:1033600088420ED060450CD090420AD0984208D0D6
:10337000B04206D0B84204D041F2FD1102A003F0E1
:1033800014FC21682868B3E72E2E2F4472697665F5
:1033900072732F53544D3332463478785F48414C22
:1033A0005F4472697665722F5372632F73746D3345
:1033B00032663478785F68616C5F74696D2E630083
:1033C000000001400004004000080040000C0040E4
:1033D000004001400044014000480140704770B582
:1033E0000446006801694FF00005C943890715D4F8
:1033F000C168C943890711D4E91E01610120207702
:10340000206880698007204602D0FFF7E7FF04E0CC
:1034100000F0C4F9204600F0FDFB25772068016923
:10342000C943490717D4C168C943490713D46FF08A
:1034300004010161022020772068806910F4407F38
:10344000204602D0FFF7CAFF04E000F0A7F92046AB
:1034500000F0E0FB257720680169C943090716D40D
:10346000C168C943090712D46FF008010161042043
:1034700020772068C0698007204602D0FFF7AEFFA2
:1034800004E000F08BF9204600F0C4FB25772068AB
:103490000169C943C90617D4C168C943C90613D411
:1034A0006FF010010161082020772068C06910F4D6
:1034B000407F204602D0FFF791FF04E000F06EF954
:1034C000204600F0A7FB257720680169C943C9079A
:1034D00008D1C168C943C90704D1891E01612046CA
:1034E00000F030FD20680169C943090609D4C168AC
:1034F000C943090605D46FF0800101612046FFF73A
:103500007BFB20680169C943490609D4C168C943E6
:10351000490605D46FF040010161204600F052FDDC
:1035200020680169C94389060BD4C168C94389066B
:1035300007D46FF0200101612046BDE87040FFF71D
:103540005CBB70BD30B587B0044614216846FCF7FB
:1035500077FE24680021204A02232048B4F1804FDE
:1035600016D01F4DAC4224D1106840F0020010600C
:10357000106800F00200059010200090CDE90131A4
:10358000CDE9031369461748FEF74CF907B030BD83
:10359000146844F001041460126802F001020592FC
:1035A0004FF400420092CDE90131039101210491D1
:1035B0000FE00D4DAC42E9D1146844F001041460F1
:1035C0001268009302F001020592CDE90131CDE9C4
:1035D00003136946D8E7000030380240000002407B
:1035E0000004004000040240000C00402DE9F047B8
:1035F00015000E4604460CD0042D0AD0082D08D024
:103600000C2D06D03C2D04D040F63B514EA003F0CB
:10361000CCFA306870B110280CD020280AD030289D
:1036200008D0502806D0402804D040F63C5146A08F
:1036300003F0BBFAB06830B1022804D040F63D5127
:1036400041A003F0B2FA94F83C00012816D04FF0E4
:10365000010984F83C90022084F83D004849494A19
:10366000494B4A4FDFF828C14FF080484DB1042D37
:1036700024D0082D39D00C2D60D14BE00220BDE8BC
:10368000F0872068884214D0404512D0904210D074
:1036900098420ED0B8420CD060450AD03D498842CD
:1036A00007D03D49884204D040F6495126A003F096
:1036B0007CFA3146206802F023FD3FE02068884212
:1036C0000ED040450CD090420AD0984208D0B84263
:1036D00006D0604504D040F653511BA003F065FAB4
:1036E0003146206802F072FD28E0206888420CD044
:1036F00040450AD0904208D0984206D0B84204D043
:1037000040F65D5110A003F050FA3146206802F0F7
:10371000C7FD13E0206888420CD040450AD0904293
:1037200008D0984206D0B84204D040F6675106A0AF
:1037300003F03BFA3146206802F01CFE84F83D900D
:10374000002084F83C009AE72E2E2F44726976659B
:1037500072732F53544D3332463478785F48414C5E
:103760005F4472697665722F5372632F73746D3381
:1037700032663478785F68616C5F74696D2E6300BF
:10378000000001400004004000080040000C004020
:1037900000400140004401400048014070470000E3
:1037A00010B5040046D02D492068884219D0B0F1E8
:1037B000804F16D02A49884213D02A49884210D017
:1037C000294988420DD0294988420AD0284988428F
:1037D00007D02849884204D040F25E2126A003F099
:1037E000E4F9A06860B110280AD0202808D0402849
:1037F00006D0602804D040F25F211FA003F0D5F965
:10380000206950B1B0F5807F07D0B0F5007F04D0BB
:103810004FF4187118A003F0C8F9A06930B18028DE
:1038200004D040F2612114A003F0BFF994F83D00E8
:1038300010B107E0012010BD002084F83C002046B4
:1038400000F036F8022084F83D00211D206802F0C7
:1038500093FB012084F83D00002010BD00000140D2
:103860000004004000080040000C004000400140FF
:1038700000440140004801402E2E2F4472697665B5
:1038800072732F53544D3332463478785F48414C2D
:103890005F4472697665722F5372632F73746D3350
:1038A00032663478785F68616C5F74696D2E63008E
:1038B000704700002DE9F04716000D4604460CD075
:1038C000042E0AD0082E08D00C2E06D03C2E04D090
:1038D00040F6EC516DA003F068F92868602806D026
:1038E000702804D040F6ED5168A003F05EF9A86896
:1038F00030B1022804D040F6EE5164A003F055F92F
:10390000286930B1042804D040F6EF515FA003F0DD
:103910004CF994F83C00012816D04FF0010984F8C6
:103920003C90022084F83D006649674A674B684F27
:10393000DFF8A0C14FF080484EB1042E32D0082EDF
:1039400057D00C2E54D177E00220BDE8F0872068D4
:10395000884214D0404512D0904210D098420ED0E8
:10396000B8420CD060450AD05B49884207D05B4919
:10397000884204D040F6FB5144A003F016F92946D2
:10398000206802F0BDFB2068816941F00801816177
:103990002068816921F004018161206881692A69B8
:1039A000114324E0206888420ED040450CD090425C
:1039B0000AD0984208D0B84206D0604504D040F6FC
:1039C0000C6132A003F0F1F82946206802F0FEFBFA
:1039D0002068816941F4006181612068816921F476
:1039E00080618161206881692A6941EA02218161DF
:1039F00046E0206888420CD040450AD0904208D06A
:103A0000984206D0B84204D040F61D611FA003F0D2
:103A1000CCF82946206802F043FC2068C16941F0D7
:103A20000801C1612068C16921F00401C1612068F9
:103A3000C1692A69114322E0206888420CD04045C0
:103A40000AD0904208D0984206D0B84204D040F63E
:103A50002E610EA003F0A9F82946206802F08AFC26
:103A60002068C16941F40061C1612068C16921F425
:103A70008061C1612068C1692A6941EA0221C1618E
:103A800084F83D90002084F83C005EE72E2E2F4401
:103A90007269766572732F53544D33324634787899
:103AA0005F48414C5F4472697665722F5372632F91
:103AB00073746D3332663478785F68616C5F7469F3
:103AC0006D2E63000000014000040040000800402B
:103AD000000C00400040014000440140004801400B
:103AE00010B5040046D02D492068884219D0B0F1A5
:103AF000804F16D02A49884213D02A49884210D0D4
:103B0000294988420DD0294988420AD0284988424B
:103B100007D02849884204D040F29B4126A003F0F8
:103B200044F8A06860B110280AD0202808D04028A6
:103B300006D0602804D040F29C411FA003F035F865
:103B4000206950B1B0F5807F07D0B0F5007F04D078
:103B500040F29D4118A003F028F8A06930B18028F8
:103B600004D040F29E4114A003F01FF894F83D00E9
:103B700010B107E0012010BD002084F83C00204671
:103B800000F036F8022084F83D00211D206802F084
:103B9000F3F9012084F83D00002010BD0000014031
:103BA0000004004000080040000C004000400140BC
:103BB00000440140004801402E2E2F447269766572
:103BC00072732F53544D3332463478785F48414CEA
:103BD0005F4472697665722F5372632F73746D330D
:103BE00032663478785F68616C5F74696D2E63004B
:103BF00008B50068B0F1804F08D10548016841F070
:103C000001010160006800F00100009008BD0000A3
:103C10004038024030B5164C026801231549A242D3
:103C200009D1154A1468A36215688C69EC62D460E6
:103C30001268640894630268B2F1804F09D10F4A98
:103C40001468A36215680C69EC62D4601268640899
:103C5000546300680A4A904209D10A480268936294
:103C600002684969D162C16000684908416330BD9A
:103C7000000C0040D02D01200C3401208C33012099
:103C800000040040CC33012070B5054600683E4E6C
:103C90000C46B04207D1002C4ED0042C51D0082C39
:103CA0006CD00C2C43D0B0F1804F39D037498842CA
:103CB00006D1A4B3042C44D0082C5FD00C2C36D0F1
:103CC0003349884206D154B3042C3AD0082C55D03D
:103CD0000C2C2CD02F49884206D104B3042C30D0B0
:103CE000082C4BD00C2C22D02B49884202D1B4B1E5
:103CF000042C26D02949884200D184B12849884221
:103D000000D164B140F25B5126A002F04EFF34B105
:103D1000042C16D0082C31D00C2C17D107E00BE066
:103D200054B1042C0DD0082C28D00C2CEAD12868D2
:103D3000C16841F0100108E02868C16841F0020143
:103D400003E02868C16841F00401C16001222146F6
:103D5000286802F05DF92868B04203D1416C41F453
:103D6000004141642868816801F00701062903D0F9
:103D7000016841F001010160002070BD2868C16840
:103D800041F00801E1E700000000014000040040AC
:103D900000080040000C0040004001400044014089
:103DA000004801402E2E2F447269766572732F539E
:103DB000544D3332463478785F48414C5F447269E1
:103DC0007665722F5372632F73746D333266347855
:103DD000785F68616C5F74696D2E630070B505462D
:103DE0000068434E0C46B04207D1002C4ED0042C44
:103DF00051D0082C77D00C2C43D0B0F1804F39D063
:103E00003C49884206D1A4B3042C44D0082C6AD083
:103E10000C2C36D03849884206D154B3042C3AD001
:103E2000082C60D00C2C2CD03449884206D104B325
:103E3000042C30D0082C56D00C2C22D0304988428B
:103E400002D1B4B1042C26D02E49884200D184B1CD
:103E50002D49884200D164B140F2A1512BA002F05B
:103E6000A4FE34B1042C16D0082C3CD00C2C17D155
:103E700007E00BE054B1042C0DD0082C33D00C2CEF
:103E8000EAD12868C16821F0100108E02868C168FB
:103E900021F0020103E02868C16821F00401C1603B
:103EA00000222146286802F0B3F841F21111286877
:103EB0008A10B04209D1036A0B4206D1036A134249
:103EC00003D1436C23F4004343642868036A0B4224
:103ED00006D1016A114203D1016821F0010101609C
:103EE000002070BDFFE72868C16821F00801D6E70F
:103EF000000001400004004000080040000C0040A9
:103F00000040014000440140004801402E2E2F4453
:103F10007269766572732F53544D33324634787814
:103F20005F48414C5F4472697665722F5372632F0C
:103F300073746D3332663478785F68616C5F74696E
:103F40006D2E630070B5054600681949194C88420A
:103F50001ED101F03DFB04F15C000168164A237993
:103F6000C1F1640142F823104068A2F5C8712279BA
:103F7000C0F1640041F822002079401C20712079B2
:103F80006421B0FBF1F201FB120008B9002020719E
:103F90000A492868884203D1E06810B1401EE060F9
:103FA00070BD02202070BDE870400548FEF7F0BFEC
:103FB00000440140D02D0120F036012000000140D6
:103FC0004C3301207047704770B502680446106892
:103FD000D168536910F00F0F52D003F0010501F4BE
:103FE00090762E435FD0C20705D0CA0503D5E26B99
:103FF00042F00102E263420705D5DA0703D0E26B23
:1040000042F00202E263820705D5DA0703D0E26BD1
:1040100042F00402E263020707D501F020022A43BE
:1040200003D0E26B42F00802E263E26B002A33D075
:10403000800604D5880602D5204602F022FA2068C0
:104040004069E16BC0F38010090700D428B3204613
:1040500002F009FA2068416949061AD5416921F040
:1040600040014161606BA0B11B490165606BFDF7C8
:1040700003F9002810D0606B016DBDE8704008475F
:10408000830610D58B060ED52046BDE8704002F0A1
:10409000F8B92046FFF797FF70BD2046FFF793FF62
:1040A0000020E06370BD030606D50B0604D520464C
:1040B000BDE8704002F00EBB4006F3D54806F1D5CE
:1040C000D168204621F04001D160202184F83910C8
:1040D00000F08AFC70BD00005764000870B5040051
:1040E00020D0A06935490028354A364B20681BD0BE
:1040F00088420AD0904208D0984206D040F24B1134
:1041000031A002F052FDA069C8B1A069B0F5807F6E
:1041100015D0B0F5007F12D0B0F5407F0FD04FF42E
:10412000A67109E0012070BD884208D0904206D0F7
:10413000984204D04FF4A87123A002F036FDA06885
:1041400038B1B0F5805F04D04FF4A9711EA002F021
:104150002CFDE06938B1B0F5004F04D040F25311A6
:1041600019A002F022FD94F83900002520B984F846
:104170003850204600F046F8242084F839002068A2
:10418000C16821F40051C160204602F0C5F92068E1
:10419000016921F4904101612068416921F02A01FF
:1041A00041612068C16841F40051C160E56320208D
:1041B00084F8390084F83A00002070BD00100140F6
:1041C00000440040001401402E2E2F447269766591
:1041D00072732F53544D3332463478785F48414CD4
:1041E0005F4472697665722F5372632F73746D33F7
:1041F00032663478785F68616C5F756172742E63C3
:104200000000000070B586B0044614216846FCF733
:1042100017F8284E23680021274A0224032527483F
:10422000B3421DD1244B10331E6846F400361E6085
:104230001B6803F400330593136843F00103136014
:10424000126802F0010205920C220092CDE90141B0
:104250000721CDE903516946FDF7E4FA06B070BDC8
:10426000174EB342FAD1144B14331E6846F02006A1
:104270001E601B6803F020030593136843F00103DD
:104280001360126802F0010205924FF4C0520092CE
:10429000CDE901410821CDE903516946FDF7C2FA94
:1042A000002211464720FDF7EBFC4720FDF7B6FC46
:1042B000D4E70000004400403038024000000240D3
:1042C000001401402DE9F0472DED048B82B0006809
:1042D000F94988427DD1F94C2078502807D1052230
:1042E0002146012001F0C2FC2078502838D000205F
:1042F0006178492936D0002108402179A04671B360
:104300000021EE4C08424FF00006A4F15C0425D0D9
:1043100098F8020050B307214FF6E07A4FF6FF7786
:104320009FEDE79B9FEDE88BDFF8A493E94D012813
:1043300028D001234FF0020C022878D0032877D030
:10434000042876D0052875D0062874D0072873D0A5
:104350000828FCD00928FAD00A286ED099E203E098
:104360000120C5E70121C7E70121CAE798F803004A
:104370000028F3D10422D8A1022001F077FC042206
:10438000D5A183E298F80300E07000917A233222ED
:104390005C21002000F06AFC53464D22622100207F
:1043A000009600F0B1FB5346322262212020009695
:1043B00000F0AAFB7A23AF2266214620009700F086
:1043C000FDFBE078FCF7CFF89FEDC51B53EC112BFC
:1043D00000E067E2FCF758F853EC192BFBF7DFFF1E
:1043E00053EC182BFBF737FFFCF7CAF882B24FF4F7
:1043F000FC6000907A236621462000F0DFFBE07825
:104400000A280FD9A0F10B0113290BD9143913294C
:1044100008D91439272905D928391D2902D91E3967
:1044200027290BD8C0EB001000F57A7032E053E07A
:104430006EE07CE0E0E1FDE10DE210E2A0F1A1021E
:104440004FF47A71132A04D800EB800001EB80004E
:1044500020E0A0F1B502132A02D800EB800017E09B
:10446000A0F1C902132A04D800EBC00202EB00102D
:1044700007E0A0F1DD02132A06D8C0EBC00000EB74
:10448000800001EB400005E0F02805D9C0EB0010EA
:1044900001EBC000606102E04846C4F8149000F0EF
:1044A00073FC60616860E378642B01D98EA280E1BF
:1044B000A3F10B0059288CA278D280488BA1001F51
:1044C00002F05EFA7D490322091F022001F0CEFBB3
:1044D0007A490322091FD9E16968494504D098F84F
:1044E000030010B1FF2809D0D3E1EB70042281A1B1
:1044F000022001F0BBFB04227EA1C7E185F803C0C6
:1045000004227EA1022001F0B1FB04227BA1BDE1C7
:1045100098F803000028E7D1EE70042279A1022068
:10452000C5F8049001F0A2FB042276A1AEE198F850
:104530000300607100915C2332223E21002000F0D4
:1045400095FB53464D2244210020009600F0DCFAF2
:104550005346312244211E20009600F0D5FA5C23F8
:10456000AF2248214620009700F028FB6079FBF736
:10457000FAFF9FED661B53EC112BFBF785FF53EC05
:10458000192BFBF70CFF53EC182BFBF764FEFBF722
:10459000F7FF82B21F2000905C234821462000F0E4
:1045A0000DFB6079322802D8DB30F9E014E1A0F18C
:1045B00033019FED588B312906D8FBF7D4FF41EC2E
:1045C000100B9FED561B09E0A0F165011D2912D8C3
:1045D000FBF7C9FF41EC100B9FED521B51EC100B88
:1045E00053EC112BFBF7DEFE53EC182BFBF733FEDD
:1045F000FBF7C6FFD4E0A0F18301132906D8FBF72F
:10460000B2FF41EC100B9FED491BE7E7A0F18D01D4
:10461000092906D8FBF7A7FF41EC100B9FED451BBE
:10462000DCE7A0F19701092906D8FBF79CFF41ECD4
:10463000100B9FED421BD1E7A0F1A101092906D87B
:10464000FBF791FF41EC100B9FED3E1BC6E7A0F17D
:10465000AB01092906D8FBF786FF41EC100B9FED53
:104660003B1BBBE7A0F1B501092906D8FBF77BFF8F
:1046700041EC100B9FED371BB0E7A0F1BF02DC212E
:10468000092A02D801EB40008AE0A0F1C902092AF8
:1046900006D8FBF768FF41EC100B9FED301B9DE740
:1046A000A0F1D302092A61D8FBF75DFF41EC100BA2
:1046B0009FED2C1B92E759E0001401406C00002094
:1046C0000000000000405A400000000000805140FF
:1046D00020D61300BC2E0120555044540000000089
:1046E000068195438B6C03404D00000025732564C3
:1046F000000000004D465744000000004D42434B6F
:10470000000000004D5354500000000021B07268BA
:10471000916D03400000000000806B40CDCCCCCCFC
:10472000CCCCF43F1F85EB51B81EF53F14AE47E1EA
:104730007A14F63F666666666666F63F3333333351
:104740003333F73F000000000000F83F9A99999931
:104750009999F93F0AD7A3703D0AFB3F9A99999915
:10476000999901400000000000000440A0F1DD0222
:10477000092A02D800EB400005E0A0F1E702092A6F
:1047800003D800EB8000DC300AE0A0F1F102092A36
:1047900002D8C0EBC000F6E700EB800001EB800020
:1047A000206200F0FFFA2062A8606379642B0DD9C3
:1047B0003FA2AFF2C8013F4802F0E2F804223D49AF
:1047C000022001F053FA04223A495FE0A3F10B0002
:1047D000592837A2FFF471AEAFF2F00135485638D0
:1047E00002F0CEF8334902225639104601F03EFA63
:1047F00030490222563949E0A868B84249D098F8B1
:10480000030010B1FF280AD043E0AB700A23042252
:1048100029A12B4800F06CF8042227A117E085F8A5
:1048200002C00A23042227A1254800F061F80422CF
:1048300024A10CE098F8030058BBAE700A230422B0
:1048400022A11F48AF6000F053F8042221A12348A1
:1048500000F0ABF81DE098F80300E07119E098F85B
:10486000030010B1FF2809D013E06E7004221CA1D0
:10487000022001F0FBF9042219A107E06B70042269
:1048800019A1022001F0F2F9042217A1012001F080
:10489000EDF926724146207A0E54401CC0B22072B7
:1048A0000528F8D302B0BDEC048BBDE8F08700000A
:1048B00052000000710000205252495400000000D4
:1048C0008C340120524C4654000000005254535086
:1048D000000000005253545000000000CC3401206E
:1048E000504C41590000000048414C540000000069
:1048F0002DE9F843044690F839001F4616460D4648
:10490000202850D1B5B1AEB194F8380001284AD072
:10491000012084F838004FF00008C4F83C802120C2
:1049200084F83900FDF718F9A6848146E68484F8F6
:10493000388026E00120BDE8F883E08C401EE0844A
:10494000A0684B46B0F5805F4FF000024FF0800149
:104950002046009703D001F0EEFEE8B90DE001F02B
:10496000EAFEC8B928882168C0F3080048602069B9
:1049700008B16D1C05E0AD1C03E0216815F8010BC2
:104980004860E08C0028D8D14B46002240212046C8
:10499000009701F0D0FE08B10320CCE7202084F876
:1049A00039000020C7E70220C5E790F83930202BF6
:1049B00018D1A9B1A2B190F83830012B12D0016200
:1049C0008284C2840021C163212280F8392080F8CA
:1049D00038100068C16841F08001C1600020704754
:1049E000012070470220704770477047F3B5184E9A
:1049F0000C464FF4006581B0002229463046FDF791
:104A000075F8144F002280213846FDF76FF80A230D
:104A1000012201A91048FDF7D7FE80B9200A8DF8C0
:104A200000008DF80140012229463046FDF75EF86E
:104A30000A23022269460848FDF7C6FE08B1002095
:104A4000FEBD012280213846FDF750F80120FEBD51
:104A50000008024000040240F432012038B5044648
:104A600000224FF400611048FDF740F80F4D00227E
:104A700080212846FDF73AF8200A8DF800000A2325
:104A8000012269460A48FDF79FFE8DF800400A237F
:104A9000012269460648FDF797FE0122802128463B
:104AA000FDF724F8012038BD000802400004024050
:104AB000F432012038B504460122D1020F48FDF737
:104AC00015F80F4D002280212846FDF70FF8200A27
:104AD0008DF800000A23012269460A48FDF774FE9A
:104AE0008DF800400A23012269460648FDF76CFE56
:104AF000012280212846FCF7F9FF38BD000802405A
:104B000000040240F43201202DE9FF4F91B014203F
:104B1000203A0F90D0B2C0EB00100D468700002461
:104B200015264FF0030A3C216846FBF789FB224912
:104B300068463A198A5C0255641C3C2CF9D300275C
:104B4000F01D4FF0010B4FEAD009694609FB071031
:104B5000B9F1010F19D0B9F1020F18D001784278DC
:104B60000904807841EA022141EA00080024311B4F
:104B70005144491E0BFA01F010EA080F1198A9B22E
:104B8000204480B207D0149A06E0007801E0008843
:104B900040BA8046EAE71E9A00F02DF8641CB44241
:104BA000E5D36D1C0F987F1C2DB28742CDD315B075
:104BB0000120BDE8F08F0000506C00082DE9F8439B
:104BC0000746072000901C4615460E46DDF820805B
:104BD000384600F04BF8A01BE91B401C491C484319
:104BE00084B204E04046FFF765FF641EA4B2002CC7
:104BF000F8D1BDE8F88370B50C4601461546202073
:104C0000FFF7F4FE21462120FFF7F0FE2946BDE81C
:104C100070402220FFF7EABE134A10B51378002B2C
:104C20000DD0012B0CD0022B13D0032B07D10388FE
:104C30005288D21A521E02800B8803800A8010BD4F
:104C40000B889288D21A521E0A80038802800B8039
:104C500010BD03885488E31A5B1E0380088892887D
:104C6000101A401E088010BD000000207FB5444C83
:104C7000BDF80010089D6088401E80B2884200D8B0
:104C80000146ADF80010BDF80810884200D908466A
:104C9000ADF80800A088BDF80410401E80B288421C
:104CA00000D80146ADF80410BDF80C10884200D9B8
:104CB0000846ADF80C0001A96846FFF7ADFF03A94F
:104CC00002A8FFF7A9FFBDF80810BDF80000814257
:104CD00003D2ADF80010ADF80800BDF80C10BDF817
:104CE0000400814203D2ADF80410ADF80C00207826
:104CF00028B1244901EBC000284410F8085C4FF4A7
:104D0000805040EAC5010320FFF770FEBDF808108F
:104D10003620FFF76BFEBDF800103720FFF766FE68
:104D2000BDF80C103820FFF761FEBDF804103920E3
:104D3000FFF75CFE680806D0012807D0022813D0D0
:104D400003280DD113E0BDF8081001E0BDF80010F4
:104D50002020FFF74BFEBDF80C102120FFF746FE88
:104D60002220FFF77BFE7FBDBDF8081001E0BDF8F3
:104D700000102020FFF73AFEBDF80410EDE7000018
:104D800000000020386C000840F21451884202D222
:104D900040F24650704702498842FBD908467047A6
:104DA00020D61300DC2801D8DC207047B0F5803F06
:104DB000FBD34FF6FF7070477FB50021204800916C
:104DC000019102911D4A0391C0E90021012404616F
:104DD0008160017680F820101A4AC0E90A21032573
:104DE000C561C16080F830404461FCF73DF808B10E
:104DF000FBF73FFF0A20CDE9000407200290694637
:104E00000F48FBF737FF08B1FBF733FF0B2000908B
:104E10000220019069460A48FBF72CFF08B1FBF716
:104E200028FF0948CDE9000569460548FBF722FF40
:104E3000002801D0FBF71DFF7FBD000000200140CE
:104E4000F43101200100000F12000010094808B5DC
:104E5000016841F4800101600068002200F48000D4
:104E6000009011463820FCF70BFFBDE808403820C1
:104E7000FCF7D4BE303802402DE9F04786B014214B
:104E80006846FBF7DDF935480024016841F004016C
:104E90000160016801F004010591016841F08001A1
:104EA0000160016801F080010591016841F0010194
:104EB0000160016801F001010591016841F0020102
:104EC00001600068DFF8988000F0020040F21135C0
:104ED0000590002229464046FCF708FEDFF8849042
:104EE0004FF41666002231464846FCF7FFFDDFF816
:104EF00078A04FF42877002239465046FCF7F6FD9B
:104F00004FF4005000901948CDE901046946484625
:104F1000FCF788FC00950125CDE90154694640461F
:104F20000394FCF77FFC0096CDE90154694648469E
:104F30000394FCF777FC0097CDE90154694650468D
:104F40000394FCF76FFC002211462820FCF798FE22
:104F50002820FCF763FE06B0BDE8F0873038024039
:104F6000000002400008024000040240000021103E
:104F7000104810B50E4901604FF482714160002164
:104F80004FF40062C0E9021292100161C0E90512FB
:104F90001822C0E90721416281620A21C162FDF73E
:104FA000C3FA002803D0BDE81040FBF762BE10BD75
:104FB000003001409C320120104810B50E490160BC
:104FC0004FF4827141604FF4004181600021C16063
:104FD0004FF400720161C0E90512C16101624162D2
:104FE00081620A21C162FDF79FFA002803D0BDE863
:104FF0001040FBF73EBE10BD00500140F4320120CE
:1050000010B588B01C216846FBF71AF914481349FB
:10501000002401604FF4F071C0E901140A21C0E9D5
:10502000031480218161FDF77BFE08B1FBF721FEAF
:105030000B48FEF7B5FB08B1FBF71BFE0520CDE9D9
:10504000004002940022694605480494FEF7CEFA17
:10505000002801D0FBF70DFE08B010BD0044014050
:105060004C34012010B586B00024184800940194F7
:105070000294039404941449059401604BF6803122
:10508000C0E901144FF4FA71C0E903148021C0E9AA
:105090000541FDF745FE08B1FBF7EBFD4FF48050ED
:1050A000009069460948FDF7D3FF08B1FBF7E1FD21
:1050B000049404A905480594FDF7A0FD002801D03B
:1050C000FBF7D7FD06B010BD000001404C330120B6
:1050D00010B58AB0002407941C2168460894FBF799
:1050E000AFF816484FF0804101600121C0E901147A
:1050F0001349C0E9031480218161FEF7F1FC08B176
:10510000FBF7B7FD079407A90C480894FDF776FD57
:1051100008B1FBF7AEFD602000900A48CDE901041C
:105120000022694605480494FEF7C4FB08B1FBF76A
:10513000A0FD0248FEF706FA0AB010BD8C3301202C
:1051400020D6130010EB090010B58EB00024079490
:10515000089409940A940B941C2168460C94FBF75C
:105160006FF820481E4901600121C0E901144FF683
:10517000FF71C0E9031480218161FDF7D1FD08B101
:10518000FBF777FD4FF48050079007A91548FDF70E
:105190005FFF08B1FBF76DFD1248FEF7A1FC08B1F7
:1051A000FBF767FD0B940BA90E480C94FDF726FD49
:1051B00008B1FBF75EFD602000904FF40040CDE9A0
:1051C00001040022694607480494FEF773FB08B106
:1051D000FBF74FFD0348FEF7B5F90EB010BD000018
:1051E00000040040CC33012010B58EB00024079499
:1051F000089409940A940B941C2168460C94FBF7BC
:105200001FF81F481D4901600121C0E901141D4913
:10521000C0E9031480218161FDF782FD08B1FBF72D
:1052200028FD4FF48050079007A91548FDF710FF9F
:1052300008B1FBF71EFD1248FEF752FC08B1FBF760
:1052400018FD0B940BA90E480C94FDF7D7FC08B180
:10525000FBF70FFD602000900B48CDE9010404220C
:10526000694607480494FEF725FB08B1FBF701FDEA
:105270000348FEF767F90EB010BD0000000C0040B7
:105280000C34012020D6130010EB09000C4810B597
:105290000A4901604FF416514160002181600C22DF
:1052A000C160C0E904128161C161FEF717FF0028E7
:1052B00003D0BDE81040FBF7DCBC10BD004400404B
:1052C0008C3401200C4810B50A4901604FF4165186
:1052D0004160002181600C22C160C0E9041281613B
:1052E000C161FEF7FBFE002803D0BDE81040FBF7CC
:1052F000C0BC10BD00140140CC340120FEE7704753
:1053000070B5304CC0EB001202F57A710A280FD943
:10531000A0F10B03132B0BD9143B132B08D9143B0F
:10532000272B05D9283B1D2B02D91E3B272B01D843
:105330000C4645E0A0F1A10500EB80034FF47A7123
:10534000132D02D801EB83043AE0A0F1B505132D2B
:1053500002D801EBC30433E0A0F1C903132B04D836
:1053600000EBC00202EB001007E0A0F1DD03092B07
:1053700006D8C0EBC00000EB800001EB40041FE04A
:10538000A0F1E703072B14D9083B00EB4002C2EB66
:10539000C012032B02D801EB420411E0A0F1F30389
:1053A000032B02D801EB82040AE0A0F1F703032BE0
:1053B00002D801EBC20403E0FA2801D900F024FC72
:1053C000204670BD20D6130010B5604C32282DED5C
:1053D000028B01D8DB3083E0A0F133019FED5C8BC1
:1053E000312906D8FBF7BFF841EC100B9FED5A1B93
:1053F0006AE0A0F165011D2906D8FBF7B4F841EC7D
:10540000100B9FED571B5FE0A0F18301132906D815
:10541000FBF7A9F841EC100B9FED531B54E0A0F1F2
:105420008D01092906D8FBF79EF841EC100B9FED82
:10543000501B49E0A0F19701092906D8FBF793F822
:1054400041EC100B9FED4C1B3EE0A0F1A10109299E
:1054500006D8FBF788F841EC100B9FED491B33E0B1
:10546000A0F1AB01092906D8FBF77DF841EC100B40
:105470009FED451B28E0A0F1B501092906D8FBF7EF
:1054800072F841EC100B9FED421B1DE0A0F1BF0232
:10549000DC21092A03D800BF01EB400451E0A0F150
:1054A000C902092A06D8FBF75EF841EC100B9FED04
:1054B0003A1B09E0A0F1D302092A13D8FBF753F8ED
:1054C00041EC100B9FED361B51EC100B53EC112BE4
:1054D000FAF768FF53EC182BFAF7BDFEFBF750F80C
:1054E00004462EE0A0F1DD02092A02D800EB4004B8
:1054F00005E0A0F1E702072A03D8C0EBC004DC34C2
:105500001FE0A0F1EF0300EB8002032B02D801EBB8
:10551000420416E0A0F1F303052B02D801EB82044C
:105520000FE0A0F1F903012B02D8C0EB0010B3E7A4
:10553000A0F1FB03022B02D801EBC20401E000F052
:1055400073FBBDEC028B204610BD000020D613007B
:105550000000000000806B40CDCCCCCCCCCCF43F24
:105560001F85EB51B81EF53F14AE47E17A14F63FA4
:10557000666666666666F63F333333333333F73F2A
:10558000000000000000F83F9A9999999999F93F15
:105590000AD7A3703D0AFB3F9A99999999990140BE
:1055A0000000000000000440704710B500F076FBDA
:1055B000002800D0012010BD044810B50078022852
:1055C00001D0012010BD00F02DFA0000D02D0120E7
:1055D00070B503222DED028B1F492048FBF796FD85
:1055E0001D4C2068FAF7BFFF9FED1D8B53EC182B65
:1055F000FAF7D8FEFAF7C4FF1B4D28606068FAF787
:10560000B2FF53EC182BFAF7CDFEFAF7B9FF68603A
:10561000A068FAF7A8FF9FED151B53EC112BFAF7C2
:10562000C1FE9FED141B53EC112BFAF7B8FE9FED52
:10563000131B53EC112BFAF727FF9FED121B53ECB2
:10564000112BFAF708FEFAF79BFFA4F14801086254
:105650000120BDEC028B70BD54350120F4310120D6
:1056600007F0164850FC983F2C2E01209A999999E2
:105670009999E93F00000000009087400000000079
:1056800000000440000000000000394010B5FBF7A6
:1056900079F9054CE0642065FBF78CF9E06C407803
:1056A000C00700D0012010BDD02D012010B5FBF7A0
:1056B00069F9084CE0632064FBF77CF9E06B407803
:1056C000410701D5012010BD000701D5022010BD02
:1056D000002010BDD02D012010B5FBF753F9084C68
:1056E000E0622063FBF766F9E06A4078410601D585
:1056F000002010BD000601D5022010BD012010BD04
:10570000D02D012010B5FBF73DF9084C6063A06374
:10571000FBF750F9606B4078C10601D5012010BD40
:10572000800601D5022010BD002010BDD02D012023
:105730002DE9F0472DED028BFFF7A8FF754E0025F0
:10574000DFF8D481741E00286CD0FBF71FFA606567
:10575000607840F001006070601CA660FBF774F98F
:10576000A065FBF73FF96562E56108F1540100208F
:1057700001F5C87251F82030656A2B44636252F813
:105780002030E5692B44E361401C6428F2DB606A49
:1057900000EE100AB8EE400ADFED600A80EE201A33
:1057A000BCEEC10A10EE100AE070E06900EE100ACB
:1057B000B8EE400A80EE201ABCEEC10A10EE100AC4
:1057C000A070E078FAF7CFFE9FED558B53EC182BC5
:1057D000FAF7E8FDFAF7D4FEA071A078FAF7C3FE55
:1057E00053EC182BFAF7DEFDFAF7CAFE6071FFF7EB
:1057F00089FF88F80600FFF759FF88F807006079ED
:10580000C8F80800A079C8F80C00FFF765FF424A05
:1058100088F805002432D8F80810906881421BD916
:105820000B461AE088F8045000F00EFA00F0ECF98C
:1058300000F0FAF988F8005088F8025088F8015012
:10584000FBF7A4F9606565703248A660FBF7FCF8C9
:10585000A065FBF7C7F837E0034600D20846A3EB84
:1058600000072762D8F80C00D368984201D9054692
:1058700000E01D4600D20346A5EB0306A66298F899
:1058800006309579AB4202D14FF0010901E04FF0AB
:10589000000998F8074092F807C09046644501D186
:1058A000012200E0002209EA0209012F01D80122A9
:1058B00000E0002209EA0209012E01D8012200E0DD
:1058C000002219EA020F04D00020BDEC028BBDE8D3
:1058D000F0874246AB4202D04FF0010801E04FF0A2
:1058E0000008644502D04FF0010C01E04FF0000CBD
:1058F00058EA0C0805D0AB4201D0937108E0D4718E
:1059000006E0012F01D9916002E0012E00D9D0609C
:105910000120DAE7D12D01200C3501200000C8421A
:10592000666666666666044070B5134A04460120E2
:10593000136898621068C1624808D1601168886372
:105940000E4D002201212846FCF7D0F80120FBF77C
:1059500049FF012C0DD0012210212846FCF7C6F882
:105960000120FBF73FFF04210348FEF78DF90120DA
:1059700070BD0022F0E700000C340120000002405E
:105980000E4A10B514680123A3621368D962D1606E
:105990001268490851630A4B01280DD000222021CA
:1059A0001846FCF7A3F80120FBF71CFF0021034871
:1059B000FEF76AF9012010BD0122F0E7CC33012087
:1059C00000040240144A10B513680446012098628E
:1059D0001068C1624808D1601168486300224FF422
:1059E00080710E48FCF782F80120FBF7FBFE0C48A3
:1059F0004FF40071012C0CD05FF00102FCF776F837
:105A00000120FBF7EFFE00210348FEF73DF90120DE
:105A100010BD0022F2E700008C330120000002409C
:105A2000000402402DED028B032256495648FBF735
:105A30006DFB544C4FF4FA67544D483CFFF778FE29
:105A40000028FBD06079F8B1012850D0207AFFF708
:105A500057FC00F0CBF82061A861207BFFF750FCD9
:105A600000F0C4F8A0612861A079002875D02169F0
:105A7000022873D05FF00200FFF756FFE07900289C
:105A800071D0022875D062E0207AFFF739FC00F06F
:105A9000ADF82061207BFFF797FCDC2801D8DC20E3
:105AA00004E0B0F5803F01D34FF6FF7060612169DB
:105AB000C5E90501A07978B1022810D05FF0020095
:105AC000FFF732FFE07920B161694FF6FD72914234
:105AD00007D900F0A9F8B1E700F096F8F2E7012045
