:020000040800F2
:1000000060080020AD010008E336000899310008BF
:10001000E1360008DD020008D939000800000000C0
:10002000000000000000000000000000E7360008AB
:10003000ED02000800000000E5360008E93600087F
:10004000C7010008C7010008C7010008C701000870
:10005000C7010008C7010008C7010008C701000860
:10006000C7010008C7010008C7010008C701000850
:10007000C7010008C7010008C7010008C701000840
:10008000C7010008C7010008C70100080000000000
:10009000000000000000000000000000C701000890
:1000A000C70100084D370008C7010008C701000854
:1000B000C701000869370008C7010008C701000828
:1000C000C7010008C7010008C7010008C7010008F0
:1000D000C7010008C7010008C701000800000000B0
:1000E000EF020008C7010008C70100080000000077
:1000F000000000000000000000000000C701000830
:1001000000000000C701000875370008C70100089B
:1001100000000000000000000000000000000000DF
:10012000E1020008C7010008C7010008C701000874
:10013000C7010008000000000000000000000000EF
:10014000000000000000000000000000C7010008DF
:10015000C7010008C7010008C7010008CD39000821
:10016000C7010008C70100080000000000000000EF
:10017000000000000000000000000000000000007F
:1001800000000000C701000800000000000000009F
:10019000C7010008C7010008DFF80CD000F08CF898
:1001A00000480047E94800086008002006488047EA
:1001B00006480047FEE7FEE7FEE7FEE7FEE7FEE74C
:1001C000FEE7FEE7FEE7FEE7F936000899010008C2
:1001D0002DE9F05F0546002092469B46884606467C
:1001E000814640241BE0284641464746224600F00F
:1001F00053F853465A46C01A914110D31146184637
:10020000224600F03AF82D1A67EB01084F462246C5
:100210000120002100F031F817EB00094E41201EAB
:10022000A4F10104DFDC484631462A464346BDE8D6
:10023000F09F40EA01039B0703D009E008C9121FA1
:1002400008C0042AFAD203E011F8013B00F8013B90
:10025000521EF9D27047D2B201E000F8012B491EBC
:10026000FBD270470022F6E710B513460A46044653
:100270001946FFF7F0FF204610BD202A04DB203A84
:1002800000FA02F1002070479140C2F1200320FAE9
:1002900003F3194390407047202A04DB203A21FAE7
:1002A00002F00021704721FA02F3D040C2F120028F
:1002B0009140084319467047064C074D06E0E06838
:1002C00040F0010394E8070098471034AC42F6D39D
:1002D000FFF766FF6849000888490008FEE700004C
:1002E000014800F063BA0000F400002070474FF4AA
:1002F000005000F0AFBC7047F8B5002605460096E8
:1003000008680C46122804D94FF4CB6162A004F0AF
:10031000EAFA6068401E0F2804D940F259615EA0D5
:1003200004F0E1FAA06890B1012810D002280ED0A4
:1003300003280CD004280AD0052808D0062806D0A7
:10034000072804D040F25A6153A004F0CCFA95F883
:100350003C00012819D0012085F83C0020680721C5
:100360002A68092813D9D3680A3800EB4000814075
:100370008B43D3602078A1680A3800EB40008140AD
:100380002868C2681143C16010E00220F8BD1369FB
:1003900000EB400081408B4313612178A06801EBA2
:1003A0004101884029680A691043086160681F217B
:1003B000072813D22A68536B401E00EB800081404F
:1003C0008B43536321792088491E80B201EB810160
:1003D000884029684A6B1043486327E02A680D2843
:1003E00012D2136BC01F00EB800081408B4313635C
:1003F000208881B22079C01F00EB800081402868EE
:10040000026B1143016311E0D36A0D3800EB8000E9
:1004100081408B43D362217920880D3980B201EB72
:10042000810188402968CA6A1043C86229492A683C
:1004300027488A420AD12268122A07D1426822F448
:1004400000024260426842F4800242602A688A42A6
:100450001DD1214A2168914201D0112917D141684B
:1004600021F480014160416841F40001416020684D
:1004700090420CD119481A490068B0FBF1F000EB2A
:100480008000400000E0401E00900028FBD185F86D
:100490003C600020F8BD00002E2E2F447269766566
:1004A00072732F53544D3332463478785F48414C41
:1004B0005F4472697665722F5372632F73746D3364
:1004C00032663478785F68616C5F6164632E6300C4
:1004D000002301400020014012000010A80000206D
:1004E00040420F002DE9F04704004FF000057DD099
:1004F0006F492068884204D040F243116DA004F097
:10050000F2F9606868B1B0F5803F0AD0B0F5003FFD
:1005100007D0B0F5403F04D04FF4A27165A004F0BD
:10052000E2F9A0684FF080774FF000784FF0407903
:1005300050B1B84208D0404506D0484504D040F2FA
:1005400045115CA004F0CFF9206930B1012804D036
:100550004FF4A37157A004F0C6F9207E30B10128F2
:1005600004D040F2471153A004F0BDF95F4EA06AD9
:1005700080B3B8422ED040452CD048452AD0B0F1A7
:10058000806F27D0B0F1A06F24D0B0F1C06F21D020
:10059000B0F1E06F1ED0B0F1006F1BD0B0F1106F62
:1005A00018D0B0F1206F15D0B0F1306F12D0B0F18B
:1005B000406F0FD0B0F1506F0CD0B0F1606F09D028
:1005C000B0F1706F06D0B04204D04FF4A47139A0DE
:1005D00004F089F9E06838B1B0F5006F04D040F25A
:1005E000491134A004F07FF9E06900E03DE0401ECD
:1005F0000F2804D94FF4A5712EA004F074F994F8D3
:10060000300030B1012804D040F24B1129A004F091
:100610006AF96069012807D030B1022804D04FF48C
:10062000A67124A004F05FF994F8200030B10128ED
:1006300004D040F24D111FA004F055F9A06AB04259
:100640000FD0E06A68B1B0F1805F0AD0B0F1005F0E
:1006500007D0B0F1405F04D040F2511115A004F072
:1006600042F9206C002618B108E00120BDE8F087AF
:10067000204600F03DF8666484F83C60206CC006BB
:1006800010D4206C20F4885040F0020020642046F2
:1006900003F0E0FC6664206C20F0020040F00100F2
:1006A000206400E0012584F83C602846DEE7000075
:1006B000002001402E2E2F447269766572732F53ED
:1006C000544D3332463478785F48414C5F44726908
:1006D0007665722F5372632F73746D33326634787C
:1006E000785F68616C5F6164632E63000100000FD6
:1006F00070B586B0064614216846FFF7B3FD1D4964
:100700003068884234D11C480025016841F480716A
:100710000160006800F48070059017481438016883
:1007200041F0040101600068694600F00400059092
:1007300003200090CDE90105104800F097FA114C14
:100740000F48C4E900050015A560C4E90350800006
:1007500060618000A0618011E0614002C4E9080589
:10076000204600F0F3F808B1FFF7C5FDB463A663B7
:1007700006B070BD0020014044380240000802402D
:1007800010640240F400002090F83510022903D0D4
:100790008021416501207047052180F835100068EF
:1007A000016821F001010160002070472DE9F84344
:1007B00004464FF00009CDF8009063484FF41651FD
:1007C000A56D0068B0FBF1F72E6894F85C10082066
:1007D00000FA01F131420FD021680A6852070BD5A7
:1007E0000A6822F004020A6094F85C108840A8604D
:1007F000606D40F00100606594F85C104FF00108F6
:1008000008FA01F0304208D021684969090604D588
:10081000A860606D40F00200606594F85C100420F0
:100820008840304208D021680968890704D5A8604B
:10083000606D40F00400606594F85C101020884002
:10084000304218D021680968090714D5A8602068CB
:100850000168490304D50068000308D5A16C07E0CE
:100860000168C90503D4016821F008010160216C09
:1008700009B12046884794F85C1020208840304217
:1008800031D021680968C9062DD5A86094F83500D3
:1008900005282068016806D0490347D50068000391
:1008A0001DD4616C1CE021F01601016020684169D3
:1008B00021F080014161206C08B9A06C20B1206852
:1008C000016821F00801016094F85C103F20884025
:1008D000A86084F8349084F83580216D1FE0E16BC6
:1008E00009B120468847606D00282BD0606DC00795
:1008F00014D0052084F835002068016821F001013A
:1009000001600098401C0090B84203D8206800683D
:10091000C007F6D184F8349084F83580E16C002962
:1009200010D001B02046BDE8F04308470168C90572
:10093000D5D4016821F01001016084F8349084F866
:100940003580CCE7BDE8F883A80000202DE9F04110
:10095000044600F025FB0546002C7CD0A249206807
:1009600088423ED0A049183188423AD09E49303161
:10097000884236D09C494831884232D09A49603109
:1009800088422ED09849783188422AD096499031B1
:10099000884226D09449A831884222D0934988427F
:1009A0001FD09249183188421BD09049303188427B
:1009B00017D08E494831884213D08C496031884223
:1009C0000FD08A49783188420BD0884990318842CB
:1009D00007D08649A831884203D0B82184A003F00B
:1009E00082FF6068C0B1B0F1007F15D0B0F1806FB8
:1009F00012D0B0F1C06F0FD0B0F1006F0CD0B0F1D9
:100A0000206F09D0B0F1406F06D0B0F1606F03D015
:100A1000B92177A003F067FFA06838B1402805D05E
:100A2000802803D0BA2172A003F05DFFE068B0F522
:100A3000007F04D018B1BB216DA003F054FF2069E2
:100A4000B0F5806F04D018B1BC2169A003F04BFF52
:100A5000606958B100E071E0B0F5006F06D0B0F504
:100A6000805F03D0BD2162A003F03DFFA06948B1C3
:100A7000B0F5005F06D0B0F5804F03D0BE215CA07A
:100A800003F031FFE06940B1B0F5807F05D0202848
:100A900003D0BF2156A003F026FF206A60B1B0F555
:100AA000803F09D0B0F5003F06D0B0F5403F03D0FD
:100AB000C0214FA003F017FF606A002832D004283D
:100AC00006D0C1214AA003F00EFF606A002829D099
:100AD000A06A48B1012807D0022805D0032803D016
:100AE000C62143A003F0FFFEE06A60B1B0F5000F3D
:100AF00009D0B0F1807F06D0B0F1C07F03D0C7210C
:100B00003BA003F0F0FE206B60B1B0F5001F09D0F0
:100B1000B0F5800F06D0B0F5C00F03D0C82134A0C7
:100B200003F0E1FE002684F83460022084F83500EA
:100B30002068016821F0010101600EE00120BDE89C
:100B4000F08100BF00F02CFA401B052805D92020B9
:100B50006065032084F83500F1E720680068C0076D
:100B6000F0D12268116830480140D4E901031843EC
:100B7000D4E903352B43184363691843A369184329
:100B8000E3691843236A18430843616A042903D1BF
:100B9000D4E90B1319430843106020684069656A63
:100BA00020F0070128460D43012704280CD1A06A34
:100BB0000543E06A40B1204603F008FB20B1402025
:100BC000606584F83570B9E720684561204603F018
:100BD00027FB94F85C203F2191408160666584F892
:100BE00035700020ABE70000106002401064024046
:100BF0002E2E2F447269766572732F53544D333203
:100C0000463478785F48414C5F4472697665722F4C
:100C10005372632F73746D3332663478785F686112
:100C20006C5F646D612E63003F8010F070B5044608
:100C300000F0B6F90546601C02D004480078044470
:100C400000F0AEF9401BA042FAD370BD9C0000201A
:100C500070470000044910B50A68024202D00860DB
:100C6000FFF7F6FF10BD0000143C01402DE9F84FDE
:100C7000044692480D46844212D0914884420FD0D7
:100C8000904884420CD09048844209D08F488442D6
:100C900006D08F48844203D0B3218EA003F023FEF8
:100CA00028680104090C01D0000C03D0B42189A0EC
:100CB00003F019FE6868F8B101281DD011281BD077
:100CC000022819D0122817D09149884214D091498E
:100CD000884211D0904988420ED0904988420BD06A
:100CE0008F49884208D08F49884205D0032803D015
:100CF000B52178A003F0F7FDA86838B1012805D028
:100D0000022803D0B62173A003F0EDFD00264FF0BA
:100D1000010A4FF0030B00BF0AFA06F02F68804665
:100D2000074047457ED16868012805D0022803D0D6
:100D3000112801D012281DD1E86848B1012807D038
:100D4000022805D0032803D0C82162A003F0CBFD00
:100D5000A06872000BFA02F18843E96891400143F0
:100D6000A1606068297920EA0800C1F30011B14050
:100D700001436160E0687100AA6888460BFA01F9D6
:100D800020EA090002FA08F20243E26068680228D9
:100D900001D0122828D12869C8B1092817D0012804
:100DA00015D0022813D0042811D005280FD006280A
:100DB0000DD007280BD0082809D00A2807D00C2806
:100DC00005D00F2803D0E02142A003F08CFDF008ED
:100DD00004EB8002106A7107CB0E0F219940884303
:100DE00029699940014311622068297920EA0900A4
:100DF00001F0030101FA08F1014321606868C000B5
:100E000056D54948016841F480410160006826F0E8
:100E1000030100F48040009044480A18D2F80818F2
:100E2000B00700E044E0030F0F20984081432348BF
:100E3000844201D1002014E02148844201D10120E4
:100E40000FE02048844201D102200AE01E4884427B
:100E500001D1032005E01D48844201D1042000E0B7
:100E6000072098400843C2F80808314908686A68B2
:100E7000B843D20300D5384308602D49091D0868DE
:100E80006A68B843920300D538430860284908319E
:100E900008686A68B843D20200D53843086024491C
:100EA0000C3108686A68B843920200D5384308607C
:100EB000761C102EFFF430AFBDE8F88F0000024022
:100EC0000004024000080240000C024000100240F2
:100ED000001C02402E2E2F447269766572732F53C8
:100EE000544D3332463478785F48414C5F447269E0
:100EF0007665722F5372632F73746D333266347854
:100F0000785F68616C5F6770696F2E630000000036
:100F1000000011100000211000003110000012101C
:100F2000000022100000321044380240003001401E
:100F3000003C014070B515460C00064604D140F255
:100F40009F1108A003F0CFFC45B1012D04D04FF450
:100F5000D07104A003F0C7FCB46170BD2004B0617F
:100F600070BD00002E2E2F447269766572732F5368
:100F7000544D3332463478785F48414C5F4472694F
:100F80007665722F5372632F73746D3332663478C3
:100F9000785F68616C5F6770696F2E6300000000A6
:100FA00001488068704700009C000020024881686A
:100FB00002781144816070479C0000200B4810B5F6
:100FC000016841F400710160016841F480610160D1
:100FD000016841F480710160032000F0C5F8002031
:100FE00000F006F800F024F8002010BD003C02409C
:100FF00070B50D4D04464FF47A712878B1FBF0F0CE
:101000000A490968B1FBF0F000F030FF48B9102C34
:1010100007D200222146501E00F056F800206C60D6
:1010200070BD012070BD00009C000020A8000020C1
:101030000B4882B0016841F480410160006800F40F
:10104000804000900648001F016841F08051016017
:10105000006800F080500090072002B000F084B8D3
:101060004438024010B5040003D5BE2107A003F0A8
:101070003AFC002C09DB04F01F01012088406109C3
:10108000890001F1E021C1F8000110BD2E2E2F448E
:101090007269766572732F53544D333246347878C3
:1010A0005F48414C5F4472697665722F5372632FBB
:1010B00073746D3332663478785F68616C5F636F28
:1010C000727465782E63000070B515460C460646AE
:1010D000102A03D3AA2114A003F005FC102C03D37B
:1010E000AB2111A003F0FFFB1E480068C0F30223F0
:1010F000C3F107022046042A00D90422191D07293A
:1011000001D2002300E0DB1E012404FA02F1491E93
:10111000014099409C40641E2C4021433046BDE86C
:10112000704003F0C1BB00002E2E2F44726976651B
:1011300072732F53544D3332463478785F48414CA4
:101140005F4472697665722F5372632F73746D33C7
:1011500032663478785F68616C5F636F727465784B
:101160002E6300000CED00E010B5044607280BD0FC
:10117000062C09D0052C07D0042C05D0032C03D055
:10118000922108A003F0AFFB154904F0070208689C
:101190004FF6FF03184040EA0220124A104308604D
:1011A00010BD00002E2E2F447269766572732F5386
:1011B000544D3332463478785F48414C5F4472690D
:1011C0007665722F5372632F73746D333266347881
:1011D000785F68616C5F636F727465782E6300007E
:1011E0000CED00E00000FA052DE9F0470E46040082
:1011F0007DD02068401E0E2804D940F251217AA0EB
:1012000003F071FB96B1012E10D0022E0ED0032EEA
:101210000CD0042E0AD0052E08D0062E06D0072E9C
:1012200004D040F2522170A003F05DFBDFF8F081A2
:10123000D8F80000F7B200F00F00B04207D288F8EB
:101240000070D8F8000000F00F00B0424FD12068C5
:10125000744D810729D5400703D5286840F4E05034
:1012600028602078000703D5286840F46040286093
:10127000A068A0B1802812D0902810D0A0280ED04D
:10128000B0280CD0C0280AD0D02808D0E02806D03A
:10129000F02804D040F2752153A003F024FB286805
:1012A000A16820F0F000084328602078C00743D0F0
:1012B000DFF870916068A9F1080988B1012822D08F
:1012C000022824D0032822D04FF41F7146A003F037
:1012D0000AFB6068012816D0022818D0032816D00F
:1012E000D9F800008007002833DA286800E030E0F1
:1012F000616820F0030008432860FFF751FE814633
:1013000041F2883A11E0D9F800008003EBE7D9F800
:1013100000008001E7E700BFFFF742FEA0EB0901F4
:10132000514502D90320BDE8F0872868616800F0C4
:101330000C00B0EB810FEFD1D8F80010404601F05F
:101340000F01B14207D90770006800F00F00B042EA
:1013500001D00120E7E720784FF4805640074FF492
:10136000A0574FF4C0584FF4E05914D5E06860B16D
:10137000B0420AD0B84208D0404506D0484504D013
:1013800040F2BA2118A003F0AEFA2868E16820F410
:10139000E050084328602078000715D5206960B127
:1013A000B0420AD0B84208D0404506D0484504D0E3
:1013B00040F2C1210CA003F096FA2868216920F4BC
:1013C000604040EAC100286000F054F82968164ADD
:1013D000C1F30311515CC840144908601448006807
:1013E000FFF706FE00209EE72E2E2F4472697665D9
:1013F00072732F53544D3332463478785F48414CE2
:101400005F4472697665722F5372632F73746D3304
:1014100032663478785F68616C5F7263632E630054
:10142000003C02400838024050490008A800002053
:10143000A00000200448054900680968044AC1F377
:101440008221515CC8407047A80000200838024043
:10145000604900080448054900680968044AC1F366
:101460004231515CC8407047A80000200838024053
:1014700060490008154810B5006810F00C021448C7
:1014800013D04110042A0FD0082A0ED10F4C241F6C
:101490002268236802F03F025B0207D52068C0F390
:1014A0008810A0FB010106E0084610BD2168C1F3C9
:1014B0008811A1FB00010023FEF78AFE2168C1F319
:1014C0000141491C4900B0FBF1F010BD0838024051
:1014D0000024F4002DE9F84F04007DD020680F2887
:1014E00003D9E821F6A003F0FEF92078DFF808948C
:1014F000C007A9F1040555D060684FF480364FF459
:10150000A02738B1B04205D0B84203D0ED21ECA0FD
:1015100003F0E9F9F848001D0168C1F381010129D0
:1015200008D00068C0F3810002280AD1D9F8000071
:10153000400206D52868800334D560680028CCD0E6
:1015400030E06068B04203D1286840F480300CE09D
:10155000B842286803D140F480202860F4E720F4E2
:1015600080302860286820F480202860606860B19E
:10157000FFF716FD064604E0FFF712FD801B642806
:101580007ED828688003F7D50CE0FFF709FD0646F2
:1015900005E000BFFFF704FD801B6428F0D8286831
:1015A0008003F7D42078DFF8548380074FF0000AD7
:1015B00056D5E06830B1012804D040F21F11C0A018
:1015C00003F091F920691F2804D94FF49071BCA051
:1015D00003F089F9C84800E092E0001D016811F0AD
:1015E0000C0F08D00068C0F38100022810D1D9F890
:1015F000000040020CD42868800702D5E06801286A
:101600007ED12868216920F0F80040EAC10017E087
:10161000E068B8B10120C8F80000FFF7C1FC064639
:1016200005E000BFFFF7BCFC801B0228A8D8286893
:101630008007F7D5286820F0F801206941EAC0004A
:1016400028600DE0C8F800A0FFF7AAFC064604E0F9
:10165000FFF7A6FC801B022892D828688007F7D4E1
:10166000207800072ED5A44EA54F60697036D0B102
:10167000012808D04FF4B07191A003F034F900E0D4
:1016800049E1606978B101203860FFF789FC0746BD
:1016900005E000BFFFF784FCC01B0228C6D83068F5
:1016A0008007F7D50EE0C7F800A0FFF779FC0746E2
:1016B00005E000BFFFF774FCC01B0228B6D83068F5
:1016C0008007F7D42078400776D5A068002740B17E
:1016D000012806D0052804D04FF4C67178A003F085
:1016E00002F9DFF814B20BF13C0BDBF80000C0008C
:1016F0000DD4DBF8001041F08051CBF8001000E071
:101700002EE1DBF80000012700F0805000907D4EB4
:101710003068C00511D4306840F480703060FFF745
:101720003FFC009006E000BFFFF73AFC0099401A2A
:10173000022891D83068C005F6D56F4EA0686C3687
:1017400001280FD00528306810D020F0010030604B
:10175000306820F004003060A068B8B1FFF720FCCA
:1017600000900FE0306840F00100F4E740F0040022
:101770003060F7E7FFF714FC0099411A41F2883016
:1017800081428BD830688007F4D50EE0FFF708FC63
:10179000009007E0FFF704FC0099411A41F28830FD
:1017A00081428BD830688007F4D42FB1DBF8001069
:1017B00021F08051CBF80010A069002874D00128D6
:1017C00009D0022807D040F2CF113DA003F08BF8DA
:1017D000A0690028F2D04848001D0068C0F38100CD
:1017E0000228A0696BD0022805D0C8F860A0FFF7D6
:1017F000D7FB044692E0E06938B1B0F5800F04D021
:101800004FF4EC712EA003F06EF8206A3F2804D943
:1018100040F2D9112AA003F066F8606AC038F028B7
:1018200004D94FF4ED7126A003F05DF8A06A0228F8
:101830000AD0042808D0062806D0082804D040F290
:10184000DB111FA003F04FF8E06A801E0D2804D9B9
:101850004FF4EE711AA003F046F84746C8F860A0AE
:10186000FFF79EFB064604E0FFF79AFB801B022869
:1018700051D828688001F7D4D4E907010843A16A48
:10188000214A490802EB0141626A41EA8211084398
:1018900094F82C1040EA0161C9F800100120386664
:1018A000FFF77EFB044606E05CE000BFFFF778FB35
:1018B000001B02282FD828688001F7D552E031E0BC
:1018C0002E2E2F447269766572732F53544D333226
:1018D000463478785F48414C5F4472697665722F70
:1018E0005372632F73746D3332663478785F686136
:1018F0006C5F7263632E630004380240000047424D
:10190000800E4742007000400000FFFFFFF748FBD9
:10191000001B022802D90320BDE8F88F2868800147
:10192000F4D41FE00128F7D0D9F80000E26900F4F0
:101930008001914214D1226A00F03F0191420FD1FF
:1019400047F6C071626A0140914209D1A26A00F46F
:101950004031914204D1E16A00F07060884201D0C8
:101960000120D9E70020D7E790F851007047000028
:1019700070B504006CD05D492068884210D05C4985
:1019800088420DD05B4988420AD05B49884207D023
:101990005A49884204D04FF4A17159A002F0A3FF24
:1019A000606838B1B0F5827F04D040F2431154A092
:1019B00002F099FFA06850B1B0F5806F07D0B0F584
:1019C000004F04D04FF4A2714DA002F08CFFE068EC
:1019D000B0F5006F05D020B140F2451148A002F0EB
:1019E00082FFA069B0F5007F08D038B1B0F5802F34
:1019F00004D04FF4A37142A002F075FFE06990B1EA
:101A0000082810D010280ED018280CD020280AD072
:101A1000282808D0302806D0382804D040F24711B2
:101A200037A002F060FF206A30B1802804D04FF464
:101A3000A47133A002F057FF606A58B110281BD080
:101A400040F249112EA002F04EFF606A10B113E07F
:101A5000012070BD206930B1022804D04FF4A67176
:101A600027A002F040FF606930B1012804D040F2A5
:101A70004D1123A002F037FF0025A56294F8510014
:101A800020B984F85050204600F056F8022084F81F
:101A900051002068016821F040010160D4E9010192
:101AA0000843D4E903121143084361690843218BB9
:101AB00001F400710843E1690843216A0843A16AFF
:101AC000084321680860A069042101EA1040616AA6
:101AD0000843216848602068C16921F40061C16140
:101AE0006565012084F85100002070BD0030014080
:101AF00000380040003C00400034014000500140EC
:101B00002E2E2F447269766572732F53544D3332E3
:101B1000463478785F48414C5F4472697665722F2D
:101B20005372632F73746D3332663478785F6861F3
:101B30006C5F7370692E63002DE9F04186B0044636
:101B400014216846FEF78EFB2D482C4B226800249A
:101B50002B49143802250326DFF8A8809A4219D1B0
:101B60000A6842F480520A60096801F480510591C4
:101B7000016841F0010101600068029400F0010079
:101B80000590E020CDE900050520CDE90360694618
:101B900040462EE01C4B9A422DD10A6842F4801236
:101BA0000A60096801F480110591016841F00201A1
:101BB0000160016801F002010591016841F0010135
:101BC0000160006802AA00F0010005900120CDE943
:101BD0000005062782E8D00069460C48FFF746F862
:101BE0004FF48060CDE9000502AA694682E8D00082
:101BF0004046FFF73BF806B0BDE8F08100300140F9
:101C000044380240000002400050014000040240FD
:101C10002DE9F84F04460A9E80681D4692468B4681
:101C20004FF00109002720B140F25A4174A002F0A0
:101C30005AFE94F8500001280ED0012084F850007C
:101C4000FFF7AEF9804694F85100616801280CD086
:101C5000B1F5827F07D102E00220BDE8F88FA168CC
:101C600009B9042801D00227C2E0BBF1000F27D038
:101C7000BAF1000F24D01DB394F85100042802D00B
:101C8000052084F8510000206065C4F838A0E5877D
:101C9000A587C4F830B0E586A58620646064206816
:101CA0000168490603D4016841F040010160E06821
:101CB000B0F5006F606805D0F0B3012D46D07FE02D
:101CC000012795E008B1012D39D1206B21680088EA
:101CD000C860206B801C2063E08E401EE0862EE0F2
:101CE0002068816889070FD5E18E69B1B9F1010FCC
:101CF0000AD1216B0988C160206B801C2063E08EB3
:101D0000401EE0864FF0000920688168C9070CD0AA
:101D1000E18F51B1C068A16B0880A06B801CA063EB
:101D2000E08F401EE0874FF00109FFF739F9A0EB83
:101D30000800B04203D300E008E0701C50D1E08EF0
:101D40000028CDD1E08F0028CAD13FE0206B216868
:101D500000780873206B401C2063E08E401EE086F4
:101D60002EE02068816889070FD5E18E69B1B9F14D
:101D7000010F0AD1216B09780173206B401C20638D
:101D8000E08E401EE0864FF0000920688168C90798
:101D90000CD0E18F51B1C068A16B0870A06B401CE2
:101DA000A063E08F401EE0874FF00109FFF7F8F8CD
:101DB000A0EB0800B04202D3701C01D010E07EB14D
:101DC000E08E0028CDD1E08F0028CAD142463146AE
:101DD000204602F039FA28B101272020606507E08B
:101DE000032705E0A06818B92068C16880680090E2
:101DF000012084F85100002084F8500038462CE778
:101E00002E2E2F447269766572732F53544D3332E0
:101E1000463478785F48414C5F4472697665722F2A
:101E20005372632F73746D3332663478785F6861F0
:101E30006C5F7370692E63000B488188642902D837
:101E4000491C818009E04178491CC9B241700A29C6
:101E500003D10021417001210170C168002901D026
:101E6000491EC160704700000400002010B5401EEC
:101E7000B0F1807F01D3012010BD4FF0E0246061FC
:101E80000F21601702F010FD0020A06107202061E3
:101E9000002010BD704770472DE9F04704460068E8
:101EA000324E334FDFF8CC80DFF8CC900D464FF048
:101EB000804AB0420CD050450AD0B84208D04045C4
:101EC00006D0484504D040F264612CA002F00BFD1E
:101ED000286890B1102810D020280ED030280CD0BF
:101EE00040280AD0502808D0602806D0702804D096
:101EF00040F2656121A002F0F6FC6868802805D0F8
:101F000020B140F266611DA002F0EDFC94F83C00A7
:101F1000012828D0012284F83C20022084F83D00CA
:101F2000216848688B6820F0700C286840EA0C0033
:101F300048602068B0420AD0504508D0B84206D068
:101F4000404504D0484502D01B49884204D1696805
:101F500023F080031943816084F83D20002084F839
:101F60003C00BDE8F0870220FBE7000000000140D4
:101F70000004004000080040000C00402E2E2F44BA
:101F80007269766572732F53544D333246347878C4
:101F90005F48414C5F4472697665722F5372632FBC
:101FA00073746D3332663478785F68616C5F74691E
:101FB0006D5F65782E6300000040014010B504009D
:101FC00046D02D492068884219D0B0F1804F16D0F4
:101FD0002A49884213D02A49884210D02949884288
:101FE0000DD0294988420AD02849884207D028497B
:101FF000884204D04FF4897126A002F074FCA068D6
:1020000060B110280AD0202808D0402806D06028C7
:1020100004D040F213111FA002F065FC206950B1FA
:10202000B0F5807F07D0B0F5007F04D04FF48A71FF
:1020300018A002F058FCA06930B1802804D040F20A
:10204000151114A002F04FFC94F83D0010B107E008
:10205000012010BD002084F83C00204600F036F836
:10206000022084F83D00211D206801F089FB012039
:1020700084F83D00002010BD000001400004004035
:1020800000080040000C00400040014000440140B6
:10209000004801402E2E2F447269766572732F53CB
:1020A000544D3332463478785F48414C5F4472690E
:1020B0007665722F5372632F73746D333266347882
:1020C000785F68616C5F74696D2E630008B52449A0
:1020D000026824488A4207D1016841F00101016089
:1020E000006800F001002FE01E491F4B091F9A42B3
:1020F0000ED1086840F0020008600868002200F075
:102100000200009011461D20FEF7DEFF1D2022E098
:10211000164B9A420ED1086840F008000860086823
:10212000002200F00800009011463220FEF7CCFF9C
:10213000322010E00E498A4211D1016841F4003189
:102140000160006800F40030002200901146192060
:10215000FEF7BAFF1920BDE80840FEF783BF08BDAF
:10216000000001404438024000040040000C0040E0
:10217000004401402DE9F05F054690F83C000C4614
:1021800001283FD04FF0010B85F83CB0022085F8C4
:102190003D0020684FF480594FF4005A484515D04F
:1021A000504513D090B1102810D020280ED03028E0
:1021B0000CD040280AD0502808D0602806D07028BB
:1021C00004D041F28B11B9A002F08DFB2868816820
:1021D00021F0770121F47F4181602068C149C24A22
:1021E000C24BC34EC34F4FF0804C4FF400485028B1
:1021F00070D00FDC202804D007DC0028FBD010288A
:102200004ED13EE10220BDE8F09F3028F9D04028B1
:10221000F6D107E160287DD070285CD0484540D0D9
:102220005045EDD1286888420CD060450AD09042D4
:1022300008D0984206D0B04204D041F2B6119BA01B
:1022400002F051FBA06858B1484509D0504507D06D
:10225000B0F5405F04D041F2B91194A002F043FB05
:102260006068404509D040B1022806D00A2804D051
:1022700041F2BA118DA002F036FBE0680F2804D9B4
:1022800041F2BB1189A002F02EFBD4E90121E368E1
:10229000286801F027FB2868816841F4804181604B
:1022A000BAE028688842FBD06045F9D09042F7D068
:1022B0009842F5D0B042F3D0B842F1D08E4988426E
:1022C000EED08E498842EBD041F2971177A002F010
:1022D0000AFBA1E041E0286888420ED060450CD09E
:1022E00090420AD0984208D0B04206D0B84204D0FA
:1022F00041F29E116DA002F0F6FAA06868B148455F
:102300000BD0504509D0B0F5405F06D041F2A11185
:1023100066A000E050E002F0E6FA6068404509D0AF
:1023200040B1022806D00A2804D041F2A2115FA0D1
:1023300002F0D9FAE0680F2804D941F2A3115BA09A
:1023400002F0D1FAD4E90121E368286801F0CAFA61
:102350002868816841F07701A1E7286888420ED09B
:1023600060450CD090420AD0984208D0B04206D0C6
:10237000B84204D041F2CA114CA002F0B4FA60682D
:10238000404509D040B1022806D00A2804D041F2C5
:10239000CD1146A002F0A7FAE0680F2804D941F257
:1023A000CE1142A002F09FFAE2686168286802F04C
:1023B000E7F8502128682DE0286888420ED0604553
:1023C0000CD090420AD0984208D0B04206D0B84211
:1023D00004D041F2DA1135A002F085FA6068404578
:1023E00009D040B1022806D00A2804D041F2DD11FC
:1023F0002EA002F078FAE0680F2804D941F2DE112D
:102400002AA002F070FAE2686168286802F0C9F850
:102410006021286802F0ACF885F83DB0002085F80E
:102420003C00F0E6286888420ED060450CD090420F
:102430000AD0984208D0B04206D0B84204D041F247
:10244000EA111AA002F04FFA6068404509D040B185
:10245000022806D00A2804D041F2ED1113A002F0A0
:1024600042FAE0680F2804D941F2EE110FA002F001
:102470003AFAE2686168286802F082F84021286828
:10248000C8E7286888420ED060450CD090420AD038
:10249000984208D0B04206D0B84204D041F2FD11B3
:1024A00002A002F020FA21682868B3E72E2E2F44FC
:1024B0007269766572732F53544D3332463478788F
:1024C0005F48414C5F4472697665722F5372632F87
:1024D00073746D3332663478785F68616C5F7469E9
:1024E0006D2E630000000140000400400008004021
:1024F000000C004000400140004401400048014001
:10250000704770B50446006801694FF00005C94383
:10251000890715D4C168C943890711D4E91E01612F
:1025200001202077206880698007204602D0FFF7CD
:10253000E7FF04E000F0C4F9204600F0FDFB25773A
:1025400020680169C943490717D4C168C9434907CD
:1025500013D46FF0040101610220207720688069A4
:1025600010F4407F204602D0FFF7CAFF04E000F0DD
:10257000A7F9204600F0E0FB257720680169C943F0
:10258000090716D4C168C943090712D46FF00801BE
:102590000161042020772068C0698007204602D0AE
:1025A000FFF7AEFF04E000F08BF9204600F0C4FB1B
:1025B000257720680169C943C90617D4C168C94392
:1025C000C90613D46FF0100101610820207720683C
:1025D000C06910F4407F204602D0FFF791FF04E06D
:1025E00000F06EF9204600F0A7FB2577206801690E
:1025F000C943C90708D1C168C943C90704D1891EA5
:102600000161204600F044FC20680169C9430906C5
:1026100009D4C168C943090605D46FF0800101617E
:102620002046FFF737FC20680169C943490609D4F1
:10263000C168C943490605D46FF0400101612046D5
:1026400000F027FC20680169C94389060BD4C168E2
:10265000C943890607D46FF0200101612046BDE817
:102660007040FFF718BC70BD30B587B00446142128
:102670006846FDF7F7FD24680021204A0223204820
:10268000B4F1804F16D01F4DAC4224D1106840F0F9
:1026900002001060106800F0020005901020009009
:1026A000CDE90131CDE9031369461748FEF7DEFA9B
:1026B00007B030BD146844F001041460126802F0E1
:1026C000010205924FF400420092CDE901310391DD
:1026D000012104910FE00D4DAC42E9D1146844F0A2
:1026E000010414601268009302F001020592CDE922
:1026F0000131CDE903136946D8E7000030380240C4
:10270000000002400004004000040240000C0040B1
:102710002DE9F04715000E4604460CD0042D0AD0D2
:10272000082D08D00C2D06D03C2D04D040F63B518E
:102730004EA002F0D8F8306870B110280CD02028D4
:102740000AD0302808D0502806D0402804D040F6BF
:102750003C5146A002F0C7F8B06830B1022804D05E
:1027600040F63D5141A002F0BEF894F83C0001282B
:1027700016D04FF0010984F83C90022084F83D0007
:102780004849494A494B4A4FDFF828C14FF0804831
:102790004DB1042D24D0082D39D00C2D60D14BE043
:1027A0000220BDE8F0872068884214D0404512D04E
:1027B000904210D098420ED0B8420CD060450AD05A
:1027C0003D49884207D03D49884204D040F64951EE
:1027D00026A002F088F83146206801F0ABFD3FE00A
:1027E000206888420ED040450CD090420AD09842D2
:1027F00008D0B84206D0604504D040F653511BA023
:1028000002F071F83146206801F076F828E020687F
:1028100088420CD040450AD0904208D0984206D059
:10282000B84204D040F65D5110A002F05CF8314689
:10283000206801F0E5FD13E0206888420CD0404597
:102840000AD0904208D0984206D0B84204D040F650
:10285000675106A002F047F83146206801F03AFEC1
:1028600084F83D90002084F83C009AE72E2E2F44F7
:102870007269766572732F53544D333246347878CB
:102880005F48414C5F4472697665722F5372632FC3
:1028900073746D3332663478785F68616C5F746925
:1028A0006D2E63000000014000040040000800405D
:1028B000000C00400040014000440140004801403D
:1028C0007047000010B5040046D02D4920688842AA
:1028D00019D0B0F1804F16D02A49884213D02A4926
:1028E000884210D0294988420DD0294988420AD00F
:1028F0002849884207D02849884204D040F25E2106
:1029000026A001F0F0FFA06860B110280AD02028AE
:1029100008D0402806D0602804D040F25F211FA0D4
:1029200001F0E1FF206950B1B0F5807F07D0B0F52C
:10293000007F04D04FF4187118A001F0D4FFA069F3
:1029400030B1802804D040F2612114A001F0CBFF07
:1029500094F83D0010B107E0012010BD002084F87C
:102960003C00204600F036F8022084F83D00211D8E
:10297000206800F005FF012084F83D00002010BD14
:10298000000001400004004000080040000C00402E
:102990000040014000440140004801402E2E2F44D9
:1029A0007269766572732F53544D3332463478789A
:1029B0005F48414C5F4472697665722F5372632F92
:1029C00073746D3332663478785F68616C5F7469F4
:1029D0006D2E6300704700002DE9F04716000D468C
:1029E00004460CD0042E0AD0082E08D00C2E06D097
:1029F0003C2E04D040F6EC516DA001F074FF286825
:102A0000602806D0702804D040F6ED5168A001F08F
:102A10006AFFA86830B1022804D040F6EE5164A0E5
:102A200001F061FF286930B1042804D040F6EF516D
:102A30005FA001F058FF94F83C00012816D04FF039
:102A4000010984F83C90022084F83D006649674AF9
:102A5000674B684FDFF8A0C14FF080484EB1042E9D
:102A600032D0082E57D00C2E54D177E00220BDE88A
:102A7000F0872068884214D0404512D0904210D090
:102A800098420ED0B8420CD060450AD05B498842CB
:102A900007D05B49884204D040F6FB5144A001F0C6
:102AA00022FF2946206801F045FC2068816941F039
:102AB000080181612068816921F004018161206839
:102AC00081692A69114324E0206888420ED040457C
:102AD0000CD090420AD0984208D0B84206D0604547
:102AE00004D040F60C6132A001F0FDFE29462068BA
:102AF00000F002FF2068816941F400618161206873
:102B0000816921F480618161206881692A6941EAD3
:102B10000221816146E0206888420CD040450AD0FD
:102B2000904208D0984206D0B84204D040F61D61C9
:102B30001FA001F0D8FE2946206801F061FC206842
:102B4000C16941F00801C1612068C16921F0040137
:102B5000C1612068C1692A69114322E02068884266
:102B60000CD040450AD0904208D0984206D0B842D6
:102B700004D040F62E610EA001F0B5FE2946206873
:102B800001F0A8FC2068C16941F40061C1612068BE
:102B9000C16921F48061C1612068C1692A6941EA83
:102BA0000221C16184F83D90002084F83C005EE77A
:102BB0002E2E2F447269766572732F53544D333223
:102BC000463478785F48414C5F4472697665722F6D
:102BD0005372632F73746D3332663478785F686133
:102BE0006C5F74696D2E63000000014000040040BA
:102BF00000080040000C004000400140004401403B
:102C00000048014010B5040046D02D492068884294
:102C100019D0B0F1804F16D02A49884213D02A49E2
:102C2000884210D0294988420DD0294988420AD0CB
:102C30002849884207D02849884204D040F29B4165
:102C400026A001F050FEA06860B110280AD020280C
:102C500008D0402806D0602804D040F29C411FA034
:102C600001F041FE206950B1B0F5807F07D0B0F58A
:102C7000007F04D040F29D4118A001F034FEA0690D
:102C800030B1802804D040F29E4114A001F02BFE08
:102C900094F83D0010B107E0012010BD002084F839
:102CA0003C00204600F036F8022084F83D00211D4B
:102CB000206800F065FD012084F83D00002010BD73
:102CC000000001400004004000080040000C0040EB
:102CD0000040014000440140004801402E2E2F4496
:102CE0007269766572732F53544D33324634787857
:102CF0005F48414C5F4472697665722F5372632F4F
:102D000073746D3332663478785F68616C5F7469B0
:102D10006D2E630008B50068B0F1804F08D10548FA
:102D2000016841F001010160006800F001000090BD
:102D300008BD0000403802407047000070B50546ED
:102D400000683E4E0C46B04207D1002C4ED0042CF9
:102D500051D0082C6CD00C2C43D0B0F1804F39D01E
:102D60003749884206D1A4B3042C44D0082C5FD044
:102D70000C2C36D03349884206D154B3042C3AD0B7
:102D8000082C55D00C2C2CD02F49884206D104B3E6
:102D9000042C30D0082C4BD00C2C22D02B4988424C
:102DA00002D1B4B1042C26D02949884200D184B183
:102DB0002849884200D164B140F25B5126A001F05D
:102DC00092FD34B1042C16D0082C31D00C2C17D124
:102DD00007E00BE054B1042C0DD0082C28D00C2CAB
:102DE000EAD12868C16841F0100108E02868C1688C
:102DF00041F0020103E02868C16841F00401C160AC
:102E000001222146286800F007FD2868B04203D15E
:102E1000416C41F4004141642868816801F0070178
:102E2000062903D0016841F001010160002070BD56
:102E30002868C16841F00801E1E700000000014096
:102E40000004004000080040000C00400040014029
:102E500000440140004801402E2E2F4472697665DF
:102E600072732F53544D3332463478785F48414C57
:102E70005F4472697665722F5372632F73746D337A
:102E800032663478785F68616C5F74696D2E6300B8
:102E9000704770477047000070B5026804461068BC
:102EA000D168536910F00F0F52D003F0010501F4FF
:102EB00090762E435FD0C20705D0CA0503D5E26BDA
:102EC00042F00102E263420705D5DA0703D0E26B64
:102ED00042F00202E263820705D5DA0703D0E26B13
:102EE00042F00402E263020707D501F020022A4300
:102EF00003D0E26B42F00802E263E26B002A33D0B7
:102F0000800604D5880602D5204601F03BFC2068E7
:102F10004069E16BC0F38010090700D428B3204654
:102F200001F0ACFC2068416949061AD5416921F0DD
:102F300040014161606BA0B11B490165606BFDF709
:102F400023FC002810D0606B016DBDE8704008477D
:102F5000830610D58B060ED52046BDE8704001F0E3
:102F600011BC2046FFF796FF70BD2046FFF792FF89
:102F70000020E06370BD030606D50B0604D520468D
:102F8000BDE8704001F049BC4006F3D54806F1D5D4
:102F9000D168204621F04001D160202184F8391009
:102FA00000F0F9F870BD00009948000870B5040001
:102FB00020D0A06935490028354A364B20681BD0FF
:102FC00088420AD0904208D0984206D040F24B1175
:102FD00031A001F088FCA069C8B1A069B0F5807F7C
:102FE00015D0B0F5007F12D0B0F5407F0FD04FF470
:102FF000A67109E0012070BD884208D0904206D039
:10300000984204D04FF4A87123A001F06CFCA06892
:1030100038B1B0F5805F04D04FF4A9711EA001F063
:1030200062FCE06938B1B0F5004F04D040F25311B2
:1030300019A001F058FC94F83900002520B984F853
:103040003850204600F046F8242084F839002068E3
:10305000C16821F40051C160204601F0B5FA206832
:10306000016921F4904101612068416921F02A0140
:1030700041612068C16841F40051C160E5632020CE
:1030800084F8390084F83A00002070BD0010014037
:1030900000440040001401402E2E2F4472697665D2
:1030A00072732F53544D3332463478785F48414C15
:1030B0005F4472697665722F5372632F73746D3338
:1030C00032663478785F68616C5F756172742E6304
:1030D0000000000070B586B0044614216846FDF774
:1030E000C1F8284E23680021274A022403252748D7
:1030F000B3421DD1244B10331E6846F400361E60C7
:103100001B6803F400330593136843F00103136055
:10311000126802F0010205920C220092CDE90141F1
:103120000721CDE903516946FDF7A0FD06B070BD4A
:10313000174EB342FAD1144B14331E6846F02006E2
:103140001E601B6803F020030593136843F001031E
:103150001360126802F0010205924FF4C05200920F
:10316000CDE901410821CDE903516946FDF77EFD16
:10317000002211464720FDF7A7FF4720FDF772FF09
:10318000D4E7000000440040303802400000024014
:103190000014014070477047704700007FB5002160
:1031A00020480091019102911D4A0391C0E900213C
:1031B000012404618160017680F820101A4AC0E978
:1031C0000A210325C561C16080F830404461FDF7E4
:1031D00089F908B1FDF78FF80A20CDE9000407202E
:1031E000029069460F48FDF787F808B1FDF783F8AC
:1031F0000B2000900220019069460A48FDF77CF8F8
:1032000008B1FDF778F80948CDE900056946054899
:10321000FDF772F8002801D0FDF76DF87FBD0000C2
:1032200000200140AC0000200100000F120000103F
:10323000094808B5016841F4800101600068002276
:1032400000F48000009011463820FDF73DFFBDE8F6
:1032500008403820FDF706BF303802402DE9F0471E
:1032600086B014216846FCF7FDFF3548002401684C
:1032700041F004010160016801F004010591016859
:1032800041F080010160016801F080010591016851
:1032900041F001010160016801F00101059101683F
:1032A00041F0020101600068DFF8988000F0020040
:1032B00040F211350590002229464046FDF73AFEBE
:1032C000DFF884904FF41666002231464846FDF739
:1032D00031FEDFF878A04FF42877002239465046B7
:1032E000FDF728FE4FF4005000901948CDE9010485
:1032F00069464846FDF7BAFC00950125CDE9015421
:10330000694640460394FDF7B1FC0096CDE90154AF
:10331000694648460394FDF7A9FC0097CDE901549E
:10332000694650460394FDF7A1FC0022114628206F
:10333000FDF7CAFE2820FDF795FE06B0BDE8F08730
:103340003038024000000240000802400004024001
:1033500000002110104810B50E4901604FF4827131
:10336000416000214FF40062C0E902129210016135
:10337000C0E905121822C0E90721416281620A21D1
:10338000C162FEF7F5FA002803D0BDE81040FCF753
:10339000B2BF10BD0030014054010020104810B5EC
:1033A0000E4901604FF4827141604FF40041816029
:1033B0000021C1604FF400720161C0E90512C161D2
:1033C0000162416281620A21C162FEF7D1FA0028DE
:1033D00003D0BDE81040FCF78EBF10BD0050014087
:1033E000AC01002010B588B01C216846FCF73AFFFC
:1033F00014481349002401601821C0E901140A216E
:10340000C0E9031480218161FEF7D8FD08B1FCF703
:1034100072FF0C48FFF756FA08B1FCF76CFF052065
:10342000CDE9004002940022694606480494FFF763
:103430006FF9002801D0FCF75EFF08B010BD000056
:10344000004401400403002010B586B00024184851
:103450000094019402940394049414490594016027
:103460004BF68031C0E901144FF4FA71C0E903143E
:1034700044618461FEF7A2FD08B1FCF73CFF4FF404
:103480008050009069460A48FEF774FE08B1FCF7C8
:1034900032FF049404A906480594FEF7FDFC0028B9
:1034A00001D0FCF728FF06B010BD0000000001406D
:1034B0000402002010B58AB0002407941C2168463D
:1034C0000894FCF7CFFE16484FF0804101600121BF
:1034D000C0E901141349C0E9031480218161FFF799
:1034E00091FB08B1FCF707FF079407A90C48089463
:1034F000FEF7D2FC08B1FCF7FEFE602000900A48FF
:10350000CDE901040022694605480494FFF764FAF6
:1035100008B1FCF7F0FE0248FFF7A6F80AB010BDAC
:103520004402002020D6130010EB090010B58EB025
:1035300000240794089409940A940B941C2168466B
:103540000C94FCF78FFE20481E4901600121C0E960
:1035500001144FF6FF71C0E9031480218161FEF769
:103560002DFD08B1FCF7C7FE4FF48050079007A966
:103570001548FEF7FFFD08B1FCF7BDFE1248FFF746
:1035800041FB08B1FCF7B7FE0B940BA90E480C9455
:10359000FEF782FC08B1FCF7AEFE602000904FF40D
:1035A0000040CDE901040022694607480494FFF772
:1035B00013FA08B1FCF79FFE0348FFF755F80EB069
:1035C00010BD0000000400408402002010B58EB041
:1035D00000240794089409940A940B941C216846CB
:1035E0000C94FCF73FFE1F481D4901600121C0E912
:1035F00001141D49C0E9031480218161FEF7DEFC3E
:1036000008B1FCF778FE4FF48050079007A91548E1
:10361000FEF7B0FD08B1FCF76EFE1248FFF7F2FAB4
:1036200008B1FCF768FE0B940BA90E480C94FEF74A
:1036300033FC08B1FCF75FFE602000900B48CDE939
:1036400001040422694607480494FFF7C5F908B14C
:10365000FCF751FE0348FFF707F80EB010BD00005D
:10366000000C0040C402002020D6130010EB09001B
:103670000C4810B50A4901604FF416514160002111
:1036800081600C22C160C0E904128161C161FFF751
:103690008DFC002803D0BDE81040FCF72CBE10BD07
:1036A00000440040440300200C4810B50A49016062
:1036B0004FF416514160002181600C22C160C0E9C5
:1036C00004128161C161FFF771FC002803D0BDE8DD
:1036D0001040FCF710BE10BD001401408403002010
:1036E000FEE770477047704710B5FDF75FFCBDE817
:1036F0001040FEF7A1BB00001048016841F47001C2
:1037000001600F48016841F0010101600C4A00218D
:103710000832116002680B4B1A400260031D0A4A0E
:103720001A60026822F48022026005480C300160B1
:1037300002495806803908607047000088ED00E0B3
:1037400000380240FFFFF6FE1030002410B5044898
:10375000FEF7D7FEBDE810400248FEF7D2BE0000DB
:1037600004020020040300200148FEF7CABE000046
:10377000840200200148FEF7C4BE0000C4020020FD
:10378000F0B502681D4B1E4C9F031E4D1E4E984205
:1037900007D0B84205D0A04203D0A84201D0B04221
:1037A00004D122F0700C4A6842EA0C02984210D010
:1037B000B8420ED0A0420CD0A8420AD0B04208D0E5
:1037C000124CA04205D0124CA04202D0114CA04293
:1037D00003D122F44074CA6822434C6922F080026B
:1037E000224302608A68C2620A688262984201D1FA
:1037F0000969016301214161F0BD00000000014041
:103800000004004000080040000C0040004001405F
:10381000004401400048014070B504461C4816466B
:103820000D46844219D0B4F1804F16D01948844215
:1038300013D01948844210D0184884420DD018483B
:1038400084420AD01748844207D01748844204D0E3
:1038500041F6CC1115A001F046F865B1042D0AD04F
:10386000082D08D00C2D06D03C2D04D041F6CD11EA
:103870000EA001F038F805F01F010120226A8840EF
:1038800082432262206A8E403043206270BD000075
:10389000000001400004004000080040000C00400F
:1038A0000040014000440140004801402E2E2F44BA
:1038B0007269766572732F53544D3332463478787B
:1038C0005F48414C5F4472697665722F5372632F73
:1038D00073746D3332663478785F68616C5F7469D5
:1038E0006D2E630010B5846842EA032224F47F44FD
:1038F0000A432243826010BD2DE9F0410446006A6C
:103900000D4620F010002062206A6768A1692A68CD
:1039100021F4E64141EA0228A96820F0200040EAAB
:1039200001161B4884422BD1E86830B1082804D026
:1039300041F24D7117A000F0D6FFE96826F0800033
:1039400040EA011020F04006A869B0F5007F05D0DC
:1039500020B141F25B710FA000F0C5FF6869B0F5BE
:10396000807F05D020B141F25C710AA000F0BBFF5E
:10397000696927F4406040EA8100A96940EA81074B
:103980006760C4F818806868A0632662BDE8F081AB
:10399000000001402E2E2F447269766572732F53FA
:1039A000544D3332463478785F48414C5F447269F5
:1039B0007665722F5372632F73746D333266347869
:1039C000785F68616C5F74696D2E63000148FFF772
:1039D00063BA000084030020FEE710B500F0D0FABF
:1039E000002800D0012010BD38B5084C064800253D
:1039F00020628DF80050016819B168468847002898
:103A000001D00120256238BD300000207400002064
:103A10000148006A8068004774000020012291027A
:103A20000148FDF787BA0000000402400148006A1F
:103A3000C068004774000020FFF7CFBF012280213B
:103A40000148FDF777BA00000008024030B593B096
:103A500030216846FCF706FC14210CA8FCF702FC98
:103A600019480024016841F080510160006800F0AD
:103A7000805011901548016841F440410160006890
:103A8000022500F440401190012003901020009581
:103A900006950490CDE907404FF4C07009900820C6
:103AA0000A9004200B906846FDF714FD0F20CDE925
:103AB0000C05E802CDE90E4001210CA81094FDF799
:103AC00093FB13B030BD000040380240007000404E
:103AD0000B4800B5026887B0002142F00202026084
:103AE000006800F002000590402000900120CDE920
:103AF0000101039169460348FDF7B8F807B000BD1E
:103B00003038024000040240007840F38010401C2E
:103B10007047007840F3C010401C7047134800B550
:103B2000026887B0002142F004020260026802F0DD
:103B300004020592026842F002020260006800F08E
:103B400002000590802000900120CDE90101039141
:103B500069460748FDF78AF84FF48060009069468F
:103B60000448FDF783F807B000BD0000303802407C
:103B700000080240000402407047000038B50A4CBB
:103B8000002280212046FDF7D5F9A015074A0090B4
:103B90000123911E0648FEF73BF8012280212046B2
:103BA000FDF7C8F9014838BD000802409200002026
:103BB000C4030020007840F3C010401C70474078D8
:103BC000002800D0012070470078C0F340107047F3
:103BD00038B5074C054800256062016819B1684690
:103BE0008847002801D00120656238BD5C000020B4
:103BF0007400002010B500F0C3F9002800D00120A7
:103C000010BD000038B580EA900380EA500283EAD4
:103C1000131382EA920203F00104174982EA121296
:103C200002F0010203F002038A705D080C710123A7
:103C30009343E40044EA8504CD7044EA42024B71A8
:103C40001A438A710C310D4C0A70487000224021D1
:103C50002046FDF76FF9084AA0150E3200900123A7
:103C6000911E0748FDF7D4FF012240212046FDF7B1
:103C700061F901480E3038BD740000200004024094
:103C8000C403002070B54178144A81EA510181EAE9
:103C9000910181EA11146FEA1113E4438D0804F0D5
:103CA0000104D471C94303F0010301F0010613724A
:103CB000E9436401567201F0010144EA0313917271
:103CC00043EAC60343EA8101D172007800F03C0068
:103CD000884201D0012070BD002070BD740000201A
:103CE00030B50378407803EB002121F00F0282EA1F
:103CF0005201144881EA910181EA1111028382EA9A
:103D0000920282EA121282EA122202F0010401F403
:103D10008071090A02F002020182550884820122A0
:103D20008A43E40044EA8504458244EA4101C282B0
:103D30001143418303F00F00814201D0012030BDC7
:103D4000002030BD740000200078C0F300107047E0
:103D50000078C0F3801070472DE9FC47002541F240
:103D600088373C4CCDE900572B4637A2012120680B
:103D700000F0CCF820683D223749406AFCF759FA38
:103D8000354890F83D102068426A82F83D10426A3A
:103D90000421324E1164416A00234E64426A0121BB
:103DA000A2F84810416A4E65426A1021A2F85810E4
:103DB0001A46194600F066F8CDE90057002328A2FC
:103DC0000221606800F0A2F860683D222849406A3C
:103DD000FCF72FFA264F17F83D1F6068426A82F8F9
:103DE0003D10416A4FF48078DFF888900D64416A95
:103DF0004FF4007A4E64426A0321A2F84880426A76
:103E0000C2F85490406A1CA2A0F858A0A068C0E96B
:103E1000011205730561006A3D221549FCF709FA94
:103E20003978A068026A82F83D10016A0D64016A5F
:103E30004E64026AA2F84880026AC2F85490006A8E
:103E4000A0F858A0BDE8FC8746656564204D6F74F6
:103E50006F72000024000020C40200200000024015
:103E6000526F746174696F6E204D6F746F720000D1
:103E70004402002000040240536572766F204D6FAB
:103E8000746F72002DE9F04190B001270773466A04
:103E9000884604461D463D2231466846FCF7C9F96E
:103EA00096F83D008DF83D00009887620098C56245
:103EB0000395606A016C6808F1B104291FD00829D4
:103EC00000991FD00864606A0022B0F84810406C66
:103ED000FDF730F8606AB8F1010FB0F85810406D86
:103EE00012D00122FDF726F8606A016C6846FEF7E1
:103EF00025FF10B0BDE8F08100994863E3E7009921
:103F00008863E0E7C863DEE70022EBE730B5DDE970
:103F10000345C0E9011203730562046130BD10B5A9
:103F2000FFF768FE08B1012010BDFFF7D1FD0020AA
:103F300010BD7047FFF722BEFFF7E6BDFFF7E9BDF2
:103F4000FFF7A0BE10B5FFF777FD08B1012010BD47
:103F5000FFF7E4FD002010BDFFF770BDFFF70CBEBA
:103F6000FFF750BEFFF75ABDFFF724BEFFF72CBE88
:103F7000FFF725BEFFF7B4BEFFF7E6BEFFF7E8BECA
:103F800010B51448FDF7F0FCD0B9124812494FF4AF
:103F9000006201604FF4827141600021C0E90212A9
:103FA00092100161C0E905121822C0E9072141629F
:103FB000816200F013F80748FDF7DAFC002805D10C
:103FC0000448FDF7D1FC012801D0012010BD0020DC
:103FD00010BD0000C4030020003001401B4810B594
:103FE000026886B0002142F001020260026802F01D
:103FF00001020592026842F002020260006800F0CD
:104000000200059011481430026842F480520260A8
:1040100000680F4C00F48050059040200090022072
:10402000CDE90101039169462046FCF71FFE80207F
:10403000009069462046FCF719FE20200090694652
:104040002046FCF713FE06B010BD000030380240D9
:104050000000024010B504464B48416821F440314D
:10406000416041686268114341602068416821F401
:104070008071416020684168226941EA0221416003
:104080002068416821F04071416020684168A26861
:10409000114341602068816821F4006181602068DB
:1040A0008168E26811438160A06A6FF07061C84264
:1040B0002068816821F070618160206881680CD07F
:1040C000A26A114381602068816821F040518160BB
:1040D00020688168E26A114301E021F0405181606B
:1040E0002068816821F00201816020688168227E59
:1040F00041EA4201816094F8200000283FD0606AC4
:10410000401E072804D940F2757120A000F0EBFB97
:104110002068416841F4006141602068416821F4F1
:104120006041416020684168264B626A03EB42327D
:10413000114341602068C16A21F47001C1622068A6
:10414000C16AA28B204B03EB02521143C16220686B
:10415000816821F4007181602068816894F83020C2
:1041600041EA422181602068816821F48061816098
:1041700020688168626941EA8221816010BD2068FF
:10418000416821F40061D4E7002301402E2E2F4422
:104190007269766572732F53544D33324634787892
:1041A0005F48414C5F4472697665722F5372632F8A
:1041B00073746D3332663478785F68616C5F616404
:1041C000632E630000E0FFFF0000F0FF10B5014622
:1041D00000208B698A6A4FF0C07453B1B3F5005F59
:1041E00015D072B1012A0CD0022A0AD0032A09D1B3
:1041F00004E01AB1012A06D0022A03D1C96AC90112
:1042000000D5012010BDC96AA142FAD010BD002A14
:10421000F7D0012AF2D0022AF3D0032AF3D010BD3E
:1042200001681823CAB2103AB2FBF3F2054B6FF3E0
:104230000901032A9B5CC36500D9091D81650846F5
:10424000704700004849000838B504461248134B2F
:104250000068B0FBF3F04FF47A7358430090606845
:10426000B0F5827F0DD10B460092002280212046BE
:1042700000F016F870B1606D40F02000606503201A
:1042800038BD009830B1401E009020688068C0435F
:104290000006F6D5002038BDA800002000366E01CB
:1042A0002DE9F0411D4617460E460446DDF81880FC
:1042B00008E0681C06D0FCF773FEA0EB0800A842DB
:1042C0000BD255B12068806836EA000030D000205B
:1042D000B842EED10020BDE8F0812068416821F0AD
:1042E000E00141606068B0F5827F0BD1A068B0F555
:1042F000004F02D0B0F5806F04D12068016821F032
:1043000040010160A06AB0F5005F09D12068016832
:1043100021F4005101602068016841F400510160FE
:10432000012084F85100002084F850000320D2E7D7
:104330000120CDE72DE9F0410446006A0D4620F04A
:1043400001002062206A6768A169AE6820F002005F
:1043500021F07302064329681A4841EA02088442A0
:1043600028D1E86830B1082804D041F2027116A0C3
:1043700000F0B9FAE86826F00801084320F00406C6
:10438000A869B0F5007F05D020B141F20F710EA0F1
:1043900000F0A9FA6869B0F5807F05D020B141F23C
:1043A000107109A000F09FFA27F440716869AF69A5
:1043B000084307436760C4F8188068686063266232
:1043C000BDE8F081000001402E2E2F447269766511
:1043D00072732F53544D3332463478785F48414CD2
:1043E0005F4472697665722F5372632F73746D33F5
:1043F00032663478785F68616C5F74696D2E630033
:104400002DE9F0410446006A0D4620F480702062D8
:10441000206A6768E16920F4007021F0730229685E
:1044200041EA0208A96840EA01261B4884422BD1D0
:10443000E86830B1082804D041F2987117A000F064
:1044400052FAE96826F4006040EA012020F4806610
:10445000A869B0F5007F05D020B141F2A5710FA089
:1044600000F041FA6869B0F5807F05D020B141F2D3
:10447000A6710AA000F037FA696927F4405040EAB3
:104480000110A96940EA01176760C4F81C806868D8
:10449000E0632662BDE8F081000001402E2E2F442B
:1044A0007269766572732F53544D3332463478787F
:1044B0005F48414C5F4472697665722F5372632F77
:1044C00073746D3332663478785F68616C5F7469D9
:1044D0006D2E63002DE9F0410446006A0D4620F47C
:1044E00080502062206A6668E1692A6821F4E6410A
:1044F00041EA0228A96820F4005040EA01370D483B
:1045000084420ED16869B0F5807F05D020B141F2B8
:10451000E47109A000F0E7F9696926F4804040EAF7
:1045200081166660C4F81C80686820642762BDE854
:10453000F0810000000001402E2E2F447269766544
:1045400072732F53544D3332463478785F48414C60
:104550005F4472697665722F5372632F73746D3383
:1045600032663478785F68616C5F74696D2E6300C1
:10457000826822F070020A4342F0070181607047AE
:1045800010B5036A046A24F001040462846924F00B
:10459000F00444EA021423F00A020A43846102622E
:1045A00010BD10B5036A23F0100303628369046A27
:1045B00023F4704343EA023224F0A00343EA0111DA
:1045C0008261016210BD00002DE9F041044640689F
:1045D0005A49884204D940F6FB3159A000F083F9CA
:1045E000E06838B1B0F5005F04D040F6FC3154A06B
:1045F00000F079F9206950B1B0F5806F07D0B0F5BF
:10460000C06F04D040F6FD314DA000F06CF9606938
:104610004FF6F371084200D120B940F6FE3148A0B0
:1046200000F061F920680169E26821F4405111430A
:1046300001612169A068E269084361691143084387
:104640002168CA6849F20C639A430243CA60206831
:104650004169A26921F4407111434161E069192760
:1046600064253226B0F5004F4449454A20684FF092
:10467000000806D0904201D0884236D1FCF7EAFE0D
:1046800035E0904201D0884202D1FCF7E3FE01E020
:10469000FCF7D0FE61684A18A0FB070148EB08034D
:1046A000FBF796FD0146B0FBF5F00201B1FBF5F01A
:1046B0006FF01803584301EB800006EBC000B0FB1D
:1046C000F5F000F0F80002EB4002B1FBF5F05843C2
:1046D00001EB800006EBC000B0FBF5F000F0070036
:1046E000216810448860BDE8F081FCF7A3FE616892
:1046F0008B0F8A00A0FB0701FBF76AFD0146B0FBA8
:10470000F5F06FF01802504301EB800006EB00104B
:10471000B0FBF5F000F0F002B1FBF5F002EB001297
:10472000B1FBF5F06FF01803584301EB800006EB86
:104730000010B0FBF5F000F00F00D1E7A037A000AB
:104740002E2E2F447269766572732F53544D333277
:10475000463478785F48414C5F4472697665722FC1
:104760005372632F73746D3332663478785F686187
:104770006C5F756172742E630000000000140140CC
:104780000010014010B590F83A10222901D0022003
:1047900010BD8168B1F5805F11D001690029016801
:1047A0001FD0496801F07F03816A4A1C82620B7046
:1047B000C18D491E0904090CC18518D02BE002697E
:1047C000816A002A0268526805D0D2B20A80816AE2
:1047D000491C8162ECE7C2F308020A80816A891CE5
:1047E000F7E74A68816A4B1C83620A70E0E7016858
:1047F000CA6822F02002CA600168CA6822F4807286
:10480000CA6001684A6922F001024A61202180F8E9
:104810003A10FEF7BFFC002010BD90F83910212996
:1048200001D0022070478168B1F5805F016A0BD02A
:104830004A1C0262026809785160C18C491E090451
:10484000090CC1840ED017E009880268C1F3080181
:10485000516001690029016A02D0491C0162ECE73C
:10486000891CFBE70168CA6822F08002CA60006800
:10487000C16841F04001C160002070470168CA680A
:1048800022F49072CA6001684A6922F001024A610A
:10489000202180F83A10704710B5806B0021C18547
:1048A000C184FEF7F7FA10BD0907090E002804DBE2
:1048B00000F1E02080F80014704700F00F0000F1D4
:1048C000E02080F8141D704702E008C8121F08C1DC
:1048D000002AFAD170477047002001E001C1121F81
:1048E000002AFBD170477047FCF768FBFFF7AEF872
:1048F000FEF7B4FCFEF79CFCFEF72CFDFEF766FE0F
:10490000FEF714FEFEF74AFCFEF7CEFEFEF79CFD16
:10491000FEF768FDFEF742FDFEF7AAFEFEF7CAFDB0
:104920001420FCF783F9FFF75FF8FFF751F9FFF761
:104930006FF8C820FCF77AF9FFF778F81420FCF735
:1049400075F9FFF709FAFEE70006101600061016C3
:10495000000000000000000001020304060708092F
:104960000000000001020304884900080000002044
:10497000AC000000C8480008344A0008AC00002021
:10498000B4070000D8480008F00000000100000053
:104990000000000000000020E8030000000000000C
:1049A0000000000000000000000000000000000007
:1049B0000000000000000000453F00085D3F0008C7
:1049C000593F0008653F0008613F0008713F00083B
:1049D000693F00087D3F00086D3F0008793F0008EF
:1049E000753F00081F3F0008333F0008353F0008AF
:1049F000393F00083D3F0008413F0008000000002B
:104A000000000000000000000000000000000000A6
:104A10000000000000000000000000000000000096
:104A20000000000001000000100000000000000075
:044A30000024F4006A
:040000050800019955
:00000001FF
